{
  "contractName": "FlightSuretyApp",
  "abi": [
    {
      "constant": true,
      "inputs": [],
      "name": "AIRLINE_FUNDING_VALUE",
      "outputs": [
        {
          "name": "",
          "type": "uint256"
        }
      ],
      "payable": false,
      "stateMutability": "view",
      "type": "function"
    },
    {
      "constant": true,
      "inputs": [],
      "name": "INSURANCE_COST",
      "outputs": [
        {
          "name": "",
          "type": "uint256"
        }
      ],
      "payable": false,
      "stateMutability": "view",
      "type": "function"
    },
    {
      "constant": true,
      "inputs": [],
      "name": "REGISTRATION_FEE",
      "outputs": [
        {
          "name": "",
          "type": "uint256"
        }
      ],
      "payable": false,
      "stateMutability": "view",
      "type": "function"
    },
    {
      "inputs": [
        {
          "name": "contractAddress",
          "type": "address"
        }
      ],
      "payable": false,
      "stateMutability": "nonpayable",
      "type": "constructor"
    },
    {
      "anonymous": false,
      "inputs": [
        {
          "indexed": false,
          "name": "airline",
          "type": "address"
        },
        {
          "indexed": false,
          "name": "flight",
          "type": "string"
        },
        {
          "indexed": false,
          "name": "timestamp",
          "type": "string"
        },
        {
          "indexed": false,
          "name": "status",
          "type": "uint8"
        }
      ],
      "name": "FlightStatusInfo",
      "type": "event"
    },
    {
      "anonymous": false,
      "inputs": [
        {
          "indexed": false,
          "name": "airline",
          "type": "address"
        },
        {
          "indexed": false,
          "name": "flight",
          "type": "string"
        },
        {
          "indexed": false,
          "name": "timestamp",
          "type": "string"
        },
        {
          "indexed": false,
          "name": "status",
          "type": "uint8"
        }
      ],
      "name": "OracleReport",
      "type": "event"
    },
    {
      "anonymous": false,
      "inputs": [
        {
          "indexed": false,
          "name": "index",
          "type": "uint8"
        },
        {
          "indexed": false,
          "name": "airline",
          "type": "address"
        },
        {
          "indexed": false,
          "name": "flight",
          "type": "string"
        },
        {
          "indexed": false,
          "name": "timestamp",
          "type": "string"
        }
      ],
      "name": "OracleRequest",
      "type": "event"
    },
    {
      "constant": true,
      "inputs": [],
      "name": "isOperational",
      "outputs": [
        {
          "name": "",
          "type": "bool"
        }
      ],
      "payable": false,
      "stateMutability": "view",
      "type": "function"
    },
    {
      "constant": true,
      "inputs": [
        {
          "name": "airline",
          "type": "address"
        },
        {
          "name": "flight",
          "type": "string"
        },
        {
          "name": "timestamp",
          "type": "string"
        }
      ],
      "name": "isFlightRegistered",
      "outputs": [
        {
          "name": "",
          "type": "bool"
        }
      ],
      "payable": false,
      "stateMutability": "view",
      "type": "function"
    },
    {
      "constant": true,
      "inputs": [
        {
          "name": "airline",
          "type": "address"
        },
        {
          "name": "flight",
          "type": "string"
        },
        {
          "name": "timestamp",
          "type": "string"
        },
        {
          "name": "passenger",
          "type": "address"
        }
      ],
      "name": "isPassengerInsuredForFlight",
      "outputs": [
        {
          "name": "",
          "type": "bool"
        }
      ],
      "payable": false,
      "stateMutability": "view",
      "type": "function"
    },
    {
      "constant": true,
      "inputs": [],
      "name": "getUintAddress",
      "outputs": [
        {
          "name": "",
          "type": "address"
        }
      ],
      "payable": false,
      "stateMutability": "view",
      "type": "function"
    },
    {
      "constant": false,
      "inputs": [],
      "name": "fundAirline",
      "outputs": [],
      "payable": true,
      "stateMutability": "payable",
      "type": "function"
    },
    {
      "constant": true,
      "inputs": [],
      "name": "getRegisteredAirlines",
      "outputs": [
        {
          "name": "",
          "type": "uint256"
        }
      ],
      "payable": false,
      "stateMutability": "view",
      "type": "function"
    },
    {
      "constant": false,
      "inputs": [
        {
          "name": "airline",
          "type": "address"
        }
      ],
      "name": "registerAirline",
      "outputs": [
        {
          "name": "success",
          "type": "bool"
        },
        {
          "name": "votes",
          "type": "uint256"
        }
      ],
      "payable": false,
      "stateMutability": "nonpayable",
      "type": "function"
    },
    {
      "constant": false,
      "inputs": [
        {
          "name": "flight",
          "type": "string"
        },
        {
          "name": "timestamp",
          "type": "string"
        },
        {
          "name": "departure",
          "type": "string"
        },
        {
          "name": "destination",
          "type": "string"
        }
      ],
      "name": "registerFlight",
      "outputs": [],
      "payable": false,
      "stateMutability": "nonpayable",
      "type": "function"
    },
    {
      "constant": false,
      "inputs": [
        {
          "name": "airline",
          "type": "address"
        },
        {
          "name": "flight",
          "type": "string"
        },
        {
          "name": "timestamp",
          "type": "string"
        },
        {
          "name": "flightKey",
          "type": "bytes32"
        }
      ],
      "name": "buyInsurance",
      "outputs": [],
      "payable": true,
      "stateMutability": "payable",
      "type": "function"
    },
    {
      "constant": false,
      "inputs": [],
      "name": "pay",
      "outputs": [],
      "payable": false,
      "stateMutability": "nonpayable",
      "type": "function"
    },
    {
      "constant": false,
      "inputs": [
        {
          "name": "airline",
          "type": "address"
        },
        {
          "name": "flight",
          "type": "string"
        },
        {
          "name": "timestamp",
          "type": "string"
        }
      ],
      "name": "fetchFlightStatus",
      "outputs": [],
      "payable": false,
      "stateMutability": "nonpayable",
      "type": "function"
    },
    {
      "constant": false,
      "inputs": [],
      "name": "registerOracle",
      "outputs": [],
      "payable": true,
      "stateMutability": "payable",
      "type": "function"
    },
    {
      "constant": true,
      "inputs": [],
      "name": "getMyIndexes",
      "outputs": [
        {
          "name": "",
          "type": "uint8[3]"
        }
      ],
      "payable": false,
      "stateMutability": "view",
      "type": "function"
    },
    {
      "constant": false,
      "inputs": [
        {
          "name": "index",
          "type": "uint8"
        },
        {
          "name": "airline",
          "type": "address"
        },
        {
          "name": "flight",
          "type": "string"
        },
        {
          "name": "timestamp",
          "type": "string"
        },
        {
          "name": "statusCode",
          "type": "uint8"
        }
      ],
      "name": "submitOracleResponse",
      "outputs": [],
      "payable": false,
      "stateMutability": "nonpayable",
      "type": "function"
    }
  ],
  "bytecode": "0x60806040526000600260146101000a81548160ff021916908360ff16021790555034801561002c57600080fd5b506040516020806139648339810180604052602081101561004c57600080fd5b810190808051906020019092919050505033600160006101000a81548173ffffffffffffffffffffffffffffffffffffffff021916908373ffffffffffffffffffffffffffffffffffffffff16021790555080600260006101000a81548173ffffffffffffffffffffffffffffffffffffffff021916908373ffffffffffffffffffffffffffffffffffffffff16021790555050613875806100ef6000396000f3fe6080604052600436106100fe5760003560e01c806364b4f751116100955780639ed18927116100645780639ed18927146109d3578063bdfd9877146109dd578063c23bcf0914610a4d578063cd905dff14610a78578063fc7d81f314610aa7576100fe565b806364b4f751146105915780637a229e4a146105bc5780639147ef1c146106b75780639b1d9cef1461084e576100fe565b806350cb8f22116100d157806350cb8f221461017a57806358121747146102725780635f1cc0e61461038757806361e90cbf146103da576100fe565b80631b9265b8146101035780633183db701461011a578063339d2590146101455780634696c57d1461014f575b600080fd5b34801561010f57600080fd5b50610118610afe565b005b34801561012657600080fd5b5061012f610c16565b6040518082815260200191505060405180910390f35b61014d610c22565b005b34801561015b57600080fd5b50610164610d48565b6040518082815260200191505060405180910390f35b6102706004803603608081101561019057600080fd5b81019080803573ffffffffffffffffffffffffffffffffffffffff169060200190929190803590602001906401000000008111156101cd57600080fd5b8201836020820111156101df57600080fd5b8035906020019184600183028401116401000000008311171561020157600080fd5b90919293919293908035906020019064010000000081111561022257600080fd5b82018360208201111561023457600080fd5b8035906020019184600183028401116401000000008311171561025657600080fd5b909192939192939080359060200190929190505050610d54565b005b34801561027e57600080fd5b50610385600480360360a081101561029557600080fd5b81019080803560ff169060200190929190803573ffffffffffffffffffffffffffffffffffffffff169060200190929190803590602001906401000000008111156102df57600080fd5b8201836020820111156102f157600080fd5b8035906020019184600183028401116401000000008311171561031357600080fd5b90919293919293908035906020019064010000000081111561033457600080fd5b82018360208201111561034657600080fd5b8035906020019184600183028401116401000000008311171561036857600080fd5b9091929391929390803560ff169060200190929190505050611314565b005b34801561039357600080fd5b5061039c6118db565b6040518082600360200280838360005b838110156103c75780820151818401526020810190506103ac565b5050505090500191505060405180910390f35b3480156103e657600080fd5b50610577600480360360808110156103fd57600080fd5b81019080803573ffffffffffffffffffffffffffffffffffffffff1690602001909291908035906020019064010000000081111561043a57600080fd5b82018360208201111561044c57600080fd5b8035906020019184600183028401116401000000008311171561046e57600080fd5b91908080601f016020809104026020016040519081016040528093929190818152602001838380828437600081840152601f19601f820116905080830192505050505050509192919290803590602001906401000000008111156104d157600080fd5b8201836020820111156104e357600080fd5b8035906020019184600183028401116401000000008311171561050557600080fd5b91908080601f016020809104026020016040519081016040528093929190818152602001838380828437600081840152601f19601f820116905080830192505050505050509192919290803573ffffffffffffffffffffffffffffffffffffffff169060200190929190505050611a4e565b604051808215151515815260200191505060405180910390f35b34801561059d57600080fd5b506105a6611b4b565b6040518082815260200191505060405180910390f35b3480156105c857600080fd5b506106b5600480360360608110156105df57600080fd5b81019080803573ffffffffffffffffffffffffffffffffffffffff1690602001909291908035906020019064010000000081111561061c57600080fd5b82018360208201111561062e57600080fd5b8035906020019184600183028401116401000000008311171561065057600080fd5b90919293919293908035906020019064010000000081111561067157600080fd5b82018360208201111561068357600080fd5b803590602001918460018302840111640100000000831117156106a557600080fd5b9091929391929390505050611b57565b005b3480156106c357600080fd5b50610834600480360360608110156106da57600080fd5b81019080803573ffffffffffffffffffffffffffffffffffffffff1690602001909291908035906020019064010000000081111561071757600080fd5b82018360208201111561072957600080fd5b8035906020019184600183028401116401000000008311171561074b57600080fd5b91908080601f016020809104026020016040519081016040528093929190818152602001838380828437600081840152601f19601f820116905080830192505050505050509192919290803590602001906401000000008111156107ae57600080fd5b8201836020820111156107c057600080fd5b803590602001918460018302840111640100000000831117156107e257600080fd5b91908080601f016020809104026020016040519081016040528093929190818152602001838380828437600081840152601f19601f820116905080830192505050505050509192919290505050611d7e565b604051808215151515815260200191505060405180910390f35b34801561085a57600080fd5b506109d16004803603608081101561087157600080fd5b810190808035906020019064010000000081111561088e57600080fd5b8201836020820111156108a057600080fd5b803590602001918460018302840111640100000000831117156108c257600080fd5b9091929391929390803590602001906401000000008111156108e357600080fd5b8201836020820111156108f557600080fd5b8035906020019184600183028401116401000000008311171561091757600080fd5b90919293919293908035906020019064010000000081111561093857600080fd5b82018360208201111561094a57600080fd5b8035906020019184600183028401116401000000008311171561096c57600080fd5b90919293919293908035906020019064010000000081111561098d57600080fd5b82018360208201111561099f57600080fd5b803590602001918460018302840111640100000000831117156109c157600080fd5b9091929391929390505050611e46565b005b6109db6123d9565b005b3480156109e957600080fd5b50610a2c60048036036020811015610a0057600080fd5b81019080803573ffffffffffffffffffffffffffffffffffffffff169060200190929190505050612718565b60405180831515151581526020018281526020019250505060405180910390f35b348015610a5957600080fd5b50610a62612fdc565b6040518082815260200191505060405180910390f35b348015610a8457600080fd5b50610a8d613086565b604051808215151515815260200191505060405180910390f35b348015610ab357600080fd5b50610abc613130565b604051808273ffffffffffffffffffffffffffffffffffffffff1673ffffffffffffffffffffffffffffffffffffffff16815260200191505060405180910390f35b610b06613086565b610b5b576040517f08c379a00000000000000000000000000000000000000000000000000000000081526004018080602001828103825260258152602001806137db6025913960400191505060405180910390fd5b600260009054906101000a900473ffffffffffffffffffffffffffffffffffffffff1673ffffffffffffffffffffffffffffffffffffffff16630c11dedd336040518263ffffffff1660e01b8152600401808273ffffffffffffffffffffffffffffffffffffffff1673ffffffffffffffffffffffffffffffffffffffff168152602001915050600060405180830381600087803b158015610bfc57600080fd5b505af1158015610c10573d6000803e3d6000fd5b50505050565b678ac7230489e8000081565b670de0b6b3a7640000341015610ca0576040517f08c379a000000000000000000000000000000000000000000000000000000000815260040180806020018281038252601c8152602001807f526567697374726174696f6e206665652069732072657175697265640000000081525060200191505060405180910390fd5b610ca86135b4565b610cb13361315a565b9050604051806040016040528060011515815260200182815250600360003373ffffffffffffffffffffffffffffffffffffffff1673ffffffffffffffffffffffffffffffffffffffff16815260200190815260200160002060008201518160000160006101000a81548160ff021916908315150217905550602082015181600101906003610d419291906135d6565b5090505050565b670de0b6b3a764000081565b610d5c613086565b610db1576040517f08c379a00000000000000000000000000000000000000000000000000000000081526004018080602001828103825260258152602001806137db6025913960400191505060405180910390fd5b80600260009054906101000a900473ffffffffffffffffffffffffffffffffffffffff1673ffffffffffffffffffffffffffffffffffffffff1663e3c87367826040518263ffffffff1660e01b81526004018082815260200191505060206040518083038186803b158015610e2557600080fd5b505afa158015610e39573d6000803e3d6000fd5b505050506040513d6020811015610e4f57600080fd5b8101908080519060200190929190505050610ed2576040517f08c379a00000000000000000000000000000000000000000000000000000000081526004018080602001828103825260198152602001807f466c69676874206973206e6f742072656769737465726564210000000000000081525060200191505060405180910390fd5b81600260009054906101000a900473ffffffffffffffffffffffffffffffffffffffff1673ffffffffffffffffffffffffffffffffffffffff166392e7b1eb826040518263ffffffff1660e01b81526004018082815260200191505060206040518083038186803b158015610f4657600080fd5b505afa158015610f5a573d6000803e3d6000fd5b505050506040513d6020811015610f7057600080fd5b810190808051906020019092919050505015610f8b57600080fd5b8233600260009054906101000a900473ffffffffffffffffffffffffffffffffffffffff1673ffffffffffffffffffffffffffffffffffffffff1663a4196b3683836040518363ffffffff1660e01b8152600401808381526020018273ffffffffffffffffffffffffffffffffffffffff1673ffffffffffffffffffffffffffffffffffffffff1681526020019250505060206040518083038186803b15801561103457600080fd5b505afa158015611048573d6000803e3d6000fd5b505050506040513d602081101561105e57600080fd5b8101908080519060200190929190505050156110c5576040517f08c379a00000000000000000000000000000000000000000000000000000000081526004018080602001828103825260278152602001806138006027913960400191505060405180910390fd5b670de0b6b3a764000080341015611144576040517f08c379a00000000000000000000000000000000000000000000000000000000081526004018080602001828103825260128152602001807f496e73756666696369656e742076616c7565000000000000000000000000000081525060200191505060405180910390fd5b670de0b6b3a76400006000349050600260009054906101000a900473ffffffffffffffffffffffffffffffffffffffff1673ffffffffffffffffffffffffffffffffffffffff16634b8260746112238f8f8f8080601f016020809104026020016040519081016040528093929190818152602001838380828437600081840152601f19601f820116905080830192505050505050508e8e8080601f016020809104026020016040519081016040528093929190818152602001838380828437600081840152601f19601f820116905080830192505050505050506132e6565b338460966040518563ffffffff1660e01b8152600401808581526020018473ffffffffffffffffffffffffffffffffffffffff1673ffffffffffffffffffffffffffffffffffffffff168152602001838152602001828152602001945050505050600060405180830381600087803b15801561129e57600080fd5b505af11580156112b2573d6000803e3d6000fd5b5050505050600081340390503373ffffffffffffffffffffffffffffffffffffffff166108fc829081150290604051600060405180830381858888f19350505050158015611304573d6000803e3d6000fd5b5050505050505050505050505050565b8660ff16600360003373ffffffffffffffffffffffffffffffffffffffff1673ffffffffffffffffffffffffffffffffffffffff16815260200190815260200160002060010160006003811061136657fe5b602091828204019190069054906101000a900460ff1660ff1614806113f357508660ff16600360003373ffffffffffffffffffffffffffffffffffffffff1673ffffffffffffffffffffffffffffffffffffffff1681526020019081526020016000206001016001600381106113d857fe5b602091828204019190069054906101000a900460ff1660ff16145b8061146657508660ff16600360003373ffffffffffffffffffffffffffffffffffffffff1673ffffffffffffffffffffffffffffffffffffffff16815260200190815260200160002060010160026003811061144b57fe5b602091828204019190069054906101000a900460ff1660ff16145b6114bb576040517f08c379a00000000000000000000000000000000000000000000000000000000081526004018080602001828103825260238152602001806138276023913960400191505060405180910390fd5b6000878787878787604051602001808760ff1660ff1660f81b81526001018673ffffffffffffffffffffffffffffffffffffffff1673ffffffffffffffffffffffffffffffffffffffff1660601b8152601401858580828437808301925050508383808284378083019250505096505050505050506040516020818303038152906040528051906020012090506004600082815260200190815260200160002060000160149054906101000a900460ff166115c1576040517f08c379a000000000000000000000000000000000000000000000000000000000815260040180806020018281038252602f81526020018061376e602f913960400191505060405180910390fd5b6004600082815260200190815260200160002060010160008360ff1660ff1681526020019081526020016000203390806001815401808255809150509060018203906000526020600020016000909192909190916101000a81548173ffffffffffffffffffffffffffffffffffffffff021916908373ffffffffffffffffffffffffffffffffffffffff160217905550507fc777f2cb92b0e45c986306f775d0d87560abef827701ed0cd4d2952dccb8f20a878787878787604051808773ffffffffffffffffffffffffffffffffffffffff1673ffffffffffffffffffffffffffffffffffffffff16815260200180602001806020018460ff1660ff1681526020018381038352888882818152602001925080828437600081840152601f19601f8201169050808301925050508381038252868682818152602001925080828437600081840152601f19601f8201169050808301925050509850505050505050505060405180910390a160036004600083815260200190815260200160002060010160008460ff1660ff16815260200190815260200160002080549050106118d1577faf996b9eb2369d335f903e34460b2aee15a4a94fe332927d868ed4a922589de1878787878787604051808773ffffffffffffffffffffffffffffffffffffffff1673ffffffffffffffffffffffffffffffffffffffff16815260200180602001806020018460ff1660ff1681526020018381038352888882818152602001925080828437600081840152601f19601f8201169050808301925050508381038252868682818152602001925080828437600081840152601f19601f8201169050808301925050509850505050505050505060405180910390a16118d08787878080601f016020809104026020016040519081016040528093929190818152602001838380828437600081840152601f19601f8201169050808301925050505050505086868080601f016020809104026020016040519081016040528093929190818152602001838380828437600081840152601f19601f82011690508083019250505050505050856133ed565b5b5050505050505050565b6118e36135b4565b600360003373ffffffffffffffffffffffffffffffffffffffff1673ffffffffffffffffffffffffffffffffffffffff16815260200190815260200160002060000160009054906101000a900460ff166119a5576040517f08c379a000000000000000000000000000000000000000000000000000000000815260040180806020018281038252601b8152602001807f4e6f74207265676973746572656420617320616e206f7261636c65000000000081525060200191505060405180910390fd5b600360003373ffffffffffffffffffffffffffffffffffffffff1673ffffffffffffffffffffffffffffffffffffffff168152602001908152602001600020600101600380602002604051908101604052809291908260038015611a44576020028201916000905b82829054906101000a900460ff1660ff1681526020019060010190602082600001049283019260010382029150808411611a0d5790505b5050505050905090565b600080611a5c8686866132e6565b9050600260009054906101000a900473ffffffffffffffffffffffffffffffffffffffff1673ffffffffffffffffffffffffffffffffffffffff1663a4196b3682856040518363ffffffff1660e01b8152600401808381526020018273ffffffffffffffffffffffffffffffffffffffff1673ffffffffffffffffffffffffffffffffffffffff1681526020019250505060206040518083038186803b158015611b0557600080fd5b505afa158015611b19573d6000803e3d6000fd5b505050506040513d6020811015611b2f57600080fd5b8101908080519060200190929190505050915050949350505050565b670de0b6b3a764000081565b6000611b623361349e565b90506000818787878787604051602001808760ff1660ff1660f81b81526001018673ffffffffffffffffffffffffffffffffffffffff1673ffffffffffffffffffffffffffffffffffffffff1660601b81526014018585808284378083019250505083838082843780830192505050965050505050505060405160208183030381529060405280519060200120905060405180604001604052803373ffffffffffffffffffffffffffffffffffffffff168152602001600115158152506004600083815260200190815260200160002060008201518160000160006101000a81548173ffffffffffffffffffffffffffffffffffffffff021916908373ffffffffffffffffffffffffffffffffffffffff16021790555060208201518160000160146101000a81548160ff0219169083151502179055509050507fe3ba3f83b9e72cb780bde451f7145ea5e46b32438f11cb92484142e8afd72c27828888888888604051808760ff1660ff1681526020018673ffffffffffffffffffffffffffffffffffffffff1673ffffffffffffffffffffffffffffffffffffffff16815260200180602001806020018381038352878782818152602001925080828437600081840152601f19601f8201169050808301925050508381038252858582818152602001925080828437600081840152601f19601f8201169050808301925050509850505050505050505060405180910390a150505050505050565b600080611d8c8585856132e6565b9050600260009054906101000a900473ffffffffffffffffffffffffffffffffffffffff1673ffffffffffffffffffffffffffffffffffffffff1663e3c87367826040518263ffffffff1660e01b81526004018082815260200191505060206040518083038186803b158015611e0157600080fd5b505afa158015611e15573d6000803e3d6000fd5b505050506040513d6020811015611e2b57600080fd5b81019080805190602001909291905050509150509392505050565b611e4e613086565b611ea3576040517f08c379a00000000000000000000000000000000000000000000000000000000081526004018080602001828103825260258152602001806137db6025913960400191505060405180910390fd5b33600260009054906101000a900473ffffffffffffffffffffffffffffffffffffffff1673ffffffffffffffffffffffffffffffffffffffff166331ac0d02826040518263ffffffff1660e01b8152600401808273ffffffffffffffffffffffffffffffffffffffff1673ffffffffffffffffffffffffffffffffffffffff16815260200191505060206040518083038186803b158015611f4357600080fd5b505afa158015611f57573d6000803e3d6000fd5b505050506040513d6020811015611f6d57600080fd5b8101908080519060200190929190505050611ff0576040517f08c379a00000000000000000000000000000000000000000000000000000000081526004018080602001828103825260168152602001807f4169726c696e65206973206e6f742066756e646564210000000000000000000081525060200191505060405180910390fd5b612083338a8a8080601f016020809104026020016040519081016040528093929190818152602001838380828437600081840152601f19601f8201169050808301925050505050505089898080601f016020809104026020016040519081016040528093929190818152602001838380828437600081840152601f19601f820116905080830192505050505050506132e6565b600260009054906101000a900473ffffffffffffffffffffffffffffffffffffffff1673ffffffffffffffffffffffffffffffffffffffff1663e3c87367826040518263ffffffff1660e01b81526004018082815260200191505060206040518083038186803b1580156120f657600080fd5b505afa15801561210a573d6000803e3d6000fd5b505050506040513d602081101561212057600080fd5b8101908080519060200190929190505050156121a4576040517f08c379a000000000000000000000000000000000000000000000000000000000815260040180806020018281038252601d8152602001807f466c6967687420697320616c726561647920726567697374657265642100000081525060200191505060405180910390fd5b6000612239338c8c8080601f016020809104026020016040519081016040528093929190818152602001838380828437600081840152601f19601f820116905080830192505050505050508b8b8080601f016020809104026020016040519081016040528093929190818152602001838380828437600081840152601f19601f820116905080830192505050505050506132e6565b9050600260009054906101000a900473ffffffffffffffffffffffffffffffffffffffff1673ffffffffffffffffffffffffffffffffffffffff16630dda531582338e8e8e8e8e8e8e8e6040518b63ffffffff1660e01b8152600401808b81526020018a73ffffffffffffffffffffffffffffffffffffffff1673ffffffffffffffffffffffffffffffffffffffff1681526020018060200180602001806020018060200185810385528d8d82818152602001925080828437600081840152601f19601f82011690508083019250505085810384528b8b82818152602001925080828437600081840152601f19601f8201169050808301925050508581038352898982818152602001925080828437600081840152601f19601f8201169050808301925050508581038252878782818152602001925080828437600081840152601f19601f8201169050808301925050509e505050505050505050505050505050600060405180830381600087803b1580156123b457600080fd5b505af11580156123c8573d6000803e3d6000fd5b505050505050505050505050505050565b6123e1613086565b612436576040517f08c379a00000000000000000000000000000000000000000000000000000000081526004018080602001828103825260258152602001806137db6025913960400191505060405180910390fd5b33600260009054906101000a900473ffffffffffffffffffffffffffffffffffffffff1673ffffffffffffffffffffffffffffffffffffffff16633e79d649826040518263ffffffff1660e01b8152600401808273ffffffffffffffffffffffffffffffffffffffff1673ffffffffffffffffffffffffffffffffffffffff16815260200191505060206040518083038186803b1580156124d657600080fd5b505afa1580156124ea573d6000803e3d6000fd5b505050506040513d602081101561250057600080fd5b8101908080519060200190929190505050612583576040517f08c379a00000000000000000000000000000000000000000000000000000000081526004018080602001828103825260208152602001807f53656e646572206973206e6f742072656769737465726564206169726c696e6581525060200191505060405180910390fd5b678ac7230489e8000080341015612602576040517f08c379a00000000000000000000000000000000000000000000000000000000081526004018080602001828103825260128152602001807f496e73756666696369656e742076616c7565000000000000000000000000000081525060200191505060405180910390fd5b678ac7230489e80000600260009054906101000a900473ffffffffffffffffffffffffffffffffffffffff1673ffffffffffffffffffffffffffffffffffffffff16636fbb8798336040518263ffffffff1660e01b8152600401808273ffffffffffffffffffffffffffffffffffffffff1673ffffffffffffffffffffffffffffffffffffffff168152602001915050600060405180830381600087803b1580156126ac57600080fd5b505af11580156126c0573d6000803e3d6000fd5b50505050600081340390503373ffffffffffffffffffffffffffffffffffffffff166108fc829081150290604051600060405180830381858888f19350505050158015612711573d6000803e3d6000fd5b5050505050565b600080612723613086565b612778576040517f08c379a00000000000000000000000000000000000000000000000000000000081526004018080602001828103825260258152602001806137db6025913960400191505060405180910390fd5b33600260009054906101000a900473ffffffffffffffffffffffffffffffffffffffff1673ffffffffffffffffffffffffffffffffffffffff166331ac0d02826040518263ffffffff1660e01b8152600401808273ffffffffffffffffffffffffffffffffffffffff1673ffffffffffffffffffffffffffffffffffffffff16815260200191505060206040518083038186803b15801561281857600080fd5b505afa15801561282c573d6000803e3d6000fd5b505050506040513d602081101561284257600080fd5b81019080805190602001909291905050506128c5576040517f08c379a00000000000000000000000000000000000000000000000000000000081526004018080602001828103825260168152602001807f4169726c696e65206973206e6f742066756e646564210000000000000000000081525060200191505060405180910390fd5b83600260009054906101000a900473ffffffffffffffffffffffffffffffffffffffff1673ffffffffffffffffffffffffffffffffffffffff16633e79d649826040518263ffffffff1660e01b8152600401808273ffffffffffffffffffffffffffffffffffffffff1673ffffffffffffffffffffffffffffffffffffffff16815260200191505060206040518083038186803b15801561296557600080fd5b505afa158015612979573d6000803e3d6000fd5b505050506040513d602081101561298f57600080fd5b810190808051906020019092919050505015612a13576040517f08c379a000000000000000000000000000000000000000000000000000000000815260040180806020018281038252601f8152602001807f4169726c696e652068617320616c72656164792072656769737465726564210081525060200191505060405180910390fd5b6004612a1d612fdc565b1015612be457600260009054906101000a900473ffffffffffffffffffffffffffffffffffffffff1673ffffffffffffffffffffffffffffffffffffffff1663c7ba501886336040518363ffffffff1660e01b8152600401808373ffffffffffffffffffffffffffffffffffffffff1673ffffffffffffffffffffffffffffffffffffffff1681526020018273ffffffffffffffffffffffffffffffffffffffff1673ffffffffffffffffffffffffffffffffffffffff16815260200192505050600060405180830381600087803b158015612af857600080fd5b505af1158015612b0c573d6000803e3d6000fd5b5050505060405180602001604052803373ffffffffffffffffffffffffffffffffffffffff1673ffffffffffffffffffffffffffffffffffffffff168152506000808773ffffffffffffffffffffffffffffffffffffffff1673ffffffffffffffffffffffffffffffffffffffff168152602001908152602001600020906001612b97929190613670565b50836000808773ffffffffffffffffffffffffffffffffffffffff1673ffffffffffffffffffffffffffffffffffffffff1681526020019081526020016000208054905093509350612fd5565b600080905060008090505b6000808873ffffffffffffffffffffffffffffffffffffffff1673ffffffffffffffffffffffffffffffffffffffff16815260200190815260200160002080549050811015612cf5573373ffffffffffffffffffffffffffffffffffffffff166000808973ffffffffffffffffffffffffffffffffffffffff1673ffffffffffffffffffffffffffffffffffffffff1681526020019081526020016000208281548110612c9857fe5b9060005260206000200160009054906101000a900473ffffffffffffffffffffffffffffffffffffffff1673ffffffffffffffffffffffffffffffffffffffff161415612ce85760019150612cf5565b8080600101915050612bef565b508015612d4d576040517f08c379a000000000000000000000000000000000000000000000000000000000815260040180806020018281038252603e81526020018061379d603e913960400191505060405180910390fd5b6000808773ffffffffffffffffffffffffffffffffffffffff1673ffffffffffffffffffffffffffffffffffffffff1681526020019081526020016000203390806001815401808255809150509060018203906000526020600020016000909192909190916101000a81548173ffffffffffffffffffffffffffffffffffffffff021916908373ffffffffffffffffffffffffffffffffffffffff16021790555050612e0a6002612dfc612fdc565b61358e90919063ffffffff16565b6000808873ffffffffffffffffffffffffffffffffffffffff1673ffffffffffffffffffffffffffffffffffffffff1681526020019081526020016000208054905010612f8b57600260009054906101000a900473ffffffffffffffffffffffffffffffffffffffff1673ffffffffffffffffffffffffffffffffffffffff1663c7ba501887336040518363ffffffff1660e01b8152600401808373ffffffffffffffffffffffffffffffffffffffff1673ffffffffffffffffffffffffffffffffffffffff1681526020018273ffffffffffffffffffffffffffffffffffffffff1673ffffffffffffffffffffffffffffffffffffffff16815260200192505050600060405180830381600087803b158015612f2657600080fd5b505af1158015612f3a573d6000803e3d6000fd5b50505050846000808873ffffffffffffffffffffffffffffffffffffffff1673ffffffffffffffffffffffffffffffffffffffff168152602001908152602001600020805490509450945050612fd5565b60008060008873ffffffffffffffffffffffffffffffffffffffff1673ffffffffffffffffffffffffffffffffffffffff1681526020019081526020016000208054905094509450505b5050915091565b6000600260009054906101000a900473ffffffffffffffffffffffffffffffffffffffff1673ffffffffffffffffffffffffffffffffffffffff1663c23bcf096040518163ffffffff1660e01b815260040160206040518083038186803b15801561304657600080fd5b505afa15801561305a573d6000803e3d6000fd5b505050506040513d602081101561307057600080fd5b8101908080519060200190929190505050905090565b6000600260009054906101000a900473ffffffffffffffffffffffffffffffffffffffff1673ffffffffffffffffffffffffffffffffffffffff1663cd905dff6040518163ffffffff1660e01b815260040160206040518083038186803b1580156130f057600080fd5b505afa158015613104573d6000803e3d6000fd5b505050506040513d602081101561311a57600080fd5b8101908080519060200190929190505050905090565b6000600260009054906101000a900473ffffffffffffffffffffffffffffffffffffffff16905090565b6131626135b4565b61316a6135b4565b6131738361349e565b8160006003811061318057fe5b602002019060ff16908160ff16815250508060006003811061319e57fe5b6020020151816001600381106131b057fe5b602002019060ff16908160ff16815250505b806000600381106131cf57fe5b602002015160ff16816001600381106131e457fe5b602002015160ff16141561321e576131fb8361349e565b8160016003811061320857fe5b602002019060ff16908160ff16815250506131c2565b8060016003811061322b57fe5b60200201518160026003811061323d57fe5b602002019060ff16908160ff16815250505b8060006003811061325c57fe5b602002015160ff168160026003811061327157fe5b602002015160ff1614806132ac57508060016003811061328d57fe5b602002015160ff16816002600381106132a257fe5b602002015160ff16145b156132dd576132ba8361349e565b816002600381106132c757fe5b602002019060ff16908160ff168152505061324f565b80915050919050565b6000838383604051602001808473ffffffffffffffffffffffffffffffffffffffff1673ffffffffffffffffffffffffffffffffffffffff1660601b815260140183805190602001908083835b602083106133565780518252602082019150602081019050602083039250613333565b6001836020036101000a03801982511681845116808217855250505050505090500182805190602001908083835b602083106133a75780518252602082019150602081019050602083039250613384565b6001836020036101000a03801982511681845116808217855250505050505090500193505050506040516020818303038152906040528051906020012090509392505050565b60006133fa8585856132e6565b9050600260009054906101000a900473ffffffffffffffffffffffffffffffffffffffff1673ffffffffffffffffffffffffffffffffffffffff16633f2aecea82846040518363ffffffff1660e01b8152600401808381526020018260ff1660ff16815260200192505050600060405180830381600087803b15801561347f57600080fd5b505af1158015613493573d6000803e3d6000fd5b505050505050505050565b600080600a905060008160ff166002601481819054906101000a900460ff168092919060010191906101000a81548160ff021916908360ff16021790555060ff1643034085604051602001808381526020018273ffffffffffffffffffffffffffffffffffffffff1673ffffffffffffffffffffffffffffffffffffffff1660601b8152601401925050506040516020818303038152906040528051906020012060001c8161354957fe5b06905060fa600260149054906101000a900460ff1660ff161115613584576000600260146101000a81548160ff021916908360ff1602179055505b8092505050919050565b600080821161359c57600080fd5b60008284816135a757fe5b0490508091505092915050565b6040518060600160405280600390602082028038833980820191505090505090565b826003601f0160209004810192821561365f5791602002820160005b8382111561363057835183826101000a81548160ff021916908360ff16021790555092602001926001016020816000010492830192600103026135f2565b801561365d5782816101000a81549060ff0219169055600101602081600001049283019260010302613630565b505b50905061366c91906136fa565b5090565b8280548282559060005260206000209081019282156136e9579160200282015b828111156136e85782518260006101000a81548173ffffffffffffffffffffffffffffffffffffffff021916908373ffffffffffffffffffffffffffffffffffffffff16021790555091602001919060010190613690565b5b5090506136f6919061372a565b5090565b61372791905b8082111561372357600081816101000a81549060ff021916905550600101613700565b5090565b90565b61376a91905b8082111561376657600081816101000a81549073ffffffffffffffffffffffffffffffffffffffff021916905550600101613730565b5090565b9056fe466c69676874206f722074696d657374616d7020646f206e6f74206d61746368206f7261636c652072657175657374566f74696e67206169726c696e652068617320616c7265616479207375626d697474656420766f746520666f722074686973206e6577206169726c696e65436f6e74726163742069732063757272656e746c79206e6f74206f7065726174696f6e616c50617373656e67657220697320616c726561647920696e737572656420666f7220666c69676874496e64657820646f6573206e6f74206d61746368206f7261636c652072657175657374a165627a7a723058204577cd1e64ded29584ff2fd7c3ef6e218138a79cccfce29b38a33a7d664613710029",
  "source": "pragma solidity ^0.5.6;\n\n// It's important to avoid vulnerabilities due to numeric overflow bugs\n// OpenZeppelin's SafeMath library, when used correctly, protects agains such bugs\n// More info: https://www.nccgroup.trust/us/about-us/newsroom-and-events/blog/2018/november/smart-contract-insecurity-bad-arithmetic/\n\nimport \"../node_modules/openzeppelin-solidity/contracts/math/SafeMath.sol\";\n\n/************************************************** */\n/* FlightSurety Smart Contract                      */\n/************************************************** */\ncontract FlightSuretyApp {\n    \n    using SafeMath for uint256; // Allow SafeMath functions to be called for all uint256 types (similar to \"prototype\" in Javascript)\n\n    /********************************************************************************************/\n    /*                                       DATA VARIABLES                                     */\n    /********************************************************************************************/\n\n    // Flight status codees\n    uint8 private constant STATUS_CODE_UNKNOWN = 0;\n    uint8 private constant STATUS_CODE_ON_TIME = 10;\n    uint8 private constant STATUS_CODE_LATE_AIRLINE = 20;\n    uint8 private constant STATUS_CODE_LATE_WEATHER = 30;\n    uint8 private constant STATUS_CODE_LATE_TECHNICAL = 40;\n    uint8 private constant STATUS_CODE_LATE_OTHER = 50;\n\n    uint256 public constant INSURANCE_COST = 1 ether;\n    uint256 private constant INSURANCE_MULTIPLIER = 150;\n    uint256 public constant AIRLINE_FUNDING_VALUE = 10 ether;\n    uint256 private constant MULTIPARTY_MINMUM_AIRLINES = 4;\n    uint256 private constant MULTIPARTY_CONSENSUS_DIVIDER = 2;\n\n    mapping(address => address[]) private airlineMultiCallers;\n\n\n    address private contractOwner;          // Account used to deploy contract\n    FlightSuretyData flightSuretyData;     // Contract Data \n\n    \n\n \n    /********************************************************************************************/\n    /*                                       FUNCTION MODIFIERS                                 */\n    /********************************************************************************************/\n\n    // Modifiers help avoid duplication of code. They are typically used to validate something\n    // before a function is allowed to be executed.\n\n    /**\n    * @dev Modifier that requires the \"operational\" boolean variable to be \"true\"\n    *      This is used on all state changing functions to pause the contract in \n    *      the event there is an issue that needs to be fixed\n    */\n    modifier requireIsOperational() {\n         // Modify to call data contract's status\n        require(isOperational(), \"Contract is currently not operational\");  \n        _;  // All modifiers require an \"_\" which indicates where the function body will be added\n    }\n\n    modifier requireRegisteredAirline(address airline) {\n        require(flightSuretyData.hasAirlineRegistered(airline), \"Sender is not registered airline\");\n        _;\n    }\n\n    /**\n    * @dev Modifier that requires the \"ContractOwner\" account to be the function caller\n    */\n    modifier requireContractOwner() {\n        require(msg.sender == contractOwner, \"Caller is not contract owner\");\n        _;\n    }\n\n    modifier paidEnough(uint256 value) {\n        require(msg.value >= value, \"Insufficient value\");\n        _;\n    }\n\n    modifier checkValue(uint256 amount) {\n        _;\n        uint amountToReturn = msg.value - amount;\n        msg.sender.transfer(amountToReturn);\n    }\n\n    modifier airlineIsFunded(address airline) {\n        require(flightSuretyData.hasAirlineFunded(airline), \"Airline is not funded!\");\n        _;\n    }\n\n    modifier airlineIsNotRegistered(address airline) {\n        require(!flightSuretyData.hasAirlineRegistered(airline), \"Airline has already registered!\");\n        _;\n    }\n\n    modifier passengerIsNotInsured(bytes32 flightKey, address passenger) {\n        require(!flightSuretyData.isPassengerInsured(flightKey, passenger), \"Passenger is already insured for flight\");\n        _;\n    }\n\n    modifier flightIsNotRegistered(bytes32 flightKey) {\n        require(!flightSuretyData.hasFlightRegistered(flightKey), \"Flight is already registered!\");\n        _;\n    }\n\n    modifier flightIsRegistered(bytes32 flightKey) {\n        require(flightSuretyData.hasFlightRegistered(flightKey), \"Flight is not registered!\");\n        _;\n    }\n\n    modifier flightIsNotLanded(bytes32 flightKey) {\n        require(!flightSuretyData.hasFlightLanded(flightKey));\n        _;\n    }\n\n    /********************************************************************************************/\n    /*                                       CONSTRUCTOR                                        */\n    /********************************************************************************************/\n\n    /**\n    * @dev Contract constructor\n    *\n    */\n    constructor(address contractAddress) public {\n        contractOwner = msg.sender;\n        flightSuretyData = FlightSuretyData(contractAddress);\n    }\n\n    /********************************************************************************************/\n    /*                                       UTILITY FUNCTIONS                                  */\n    /********************************************************************************************/\n\n    function isOperational() public view returns (bool) {\n        return flightSuretyData.isOperational();  // Modify to call data contract's status\n    }\n\n    function isFlightRegistered(address airline, string memory flight, string memory timestamp) public view returns (bool) {\n        bytes32 flightKey = getFlightKey(airline, flight, timestamp);\n        return flightSuretyData.hasFlightRegistered(flightKey);\n    }\n\n    function isPassengerInsuredForFlight(address airline, string memory flight, string memory timestamp, address passenger) public view returns (bool) {\n        bytes32 flightKey  = getFlightKey(airline, flight, timestamp);\n        return flightSuretyData.isPassengerInsured(flightKey, passenger);\n    }\n\n\n    /********************************************************************************************/\n    /*                                     SMART CONTRACT FUNCTIONS                             */\n    /********************************************************************************************/\n\n  \n   /**\n    * @dev Add an airline to the registration queue\n    *\n    */ \n\n    function getUintAddress() public view returns (address) {\n        return address(uint160(address(flightSuretyData)));\n    }\n\n    function fundAirline() external payable requireIsOperational requireRegisteredAirline(msg.sender) paidEnough(AIRLINE_FUNDING_VALUE) checkValue(AIRLINE_FUNDING_VALUE) {\n        flightSuretyData.fundAirline(msg.sender);\n    } \n\n    function getRegisteredAirlines() public view returns (uint256) {\n        return flightSuretyData.getRegisteredAirlines();\n    }\n\n    function registerAirline(address airline) external requireIsOperational() airlineIsFunded(msg.sender) airlineIsNotRegistered(airline) returns (bool success, uint256 votes) {\n        if (getRegisteredAirlines() < MULTIPARTY_MINMUM_AIRLINES) {\n            flightSuretyData.registerAirline(airline, msg.sender);\n            airlineMultiCallers[airline] = [msg.sender];\n            return (success, airlineMultiCallers[airline].length);\n        } else {\n            bool isDuplicate = false;\n            for (uint c = 0; c < airlineMultiCallers[airline].length; c ++) {\n                if (airlineMultiCallers[airline][c] == msg.sender) {\n                    isDuplicate = true;\n                    break;\n                }\n            }\n            require(!isDuplicate, \"Voting airline has already submitted vote for this new airline\");\n\n            airlineMultiCallers[airline].push(msg.sender);\n            if (airlineMultiCallers[airline].length >= getRegisteredAirlines().div(MULTIPARTY_CONSENSUS_DIVIDER)) {\n                flightSuretyData.registerAirline(airline, msg.sender);\n                return (success, airlineMultiCallers[airline].length);\n            }\n\n            return (false, airlineMultiCallers[airline].length);\n        }\n    }\n\n    function registerFlight(string calldata flight, string calldata timestamp, string calldata departure, string calldata destination) external \n    requireIsOperational airlineIsFunded(msg.sender) \n    flightIsNotRegistered(getFlightKey(msg.sender, flight, timestamp)) {\n        bytes32 flightKey = getFlightKey(msg.sender, flight, timestamp);\n        flightSuretyData.registerFlight(flightKey, msg.sender, flight, timestamp, departure, destination);\n    }\n\n    function buyInsurance(address airline, string calldata flight, string calldata timestamp, bytes32 flightKey) external payable requireIsOperational() \n    flightIsRegistered(flightKey) \n    flightIsNotLanded(flightKey) \n    passengerIsNotInsured(flightKey, msg.sender)\n    paidEnough(INSURANCE_COST)\n    checkValue(INSURANCE_COST) {\n        uint256 amount = msg.value;\n        flightSuretyData.buy(getFlightKey(airline, flight, timestamp), msg.sender, amount, INSURANCE_MULTIPLIER);\n    }\n\n    function processFlightStatus(address airline, string memory flight, string memory timestamp, uint8 statusCode) internal {\n        bytes32 flightKey = getFlightKey(airline, flight, timestamp);\n        flightSuretyData.updateFlightStatus(flightKey, statusCode);\n    }\n\n    function pay() public requireIsOperational {\n        flightSuretyData.pay(address(uint160(address(msg.sender))));\n    }\n\n    function fetchFlightStatus(address airline, string calldata flight, string calldata timestamp) external {\n        uint8 index = getRandomIndex(msg.sender);\n\n        bytes32 key = keccak256(abi.encodePacked(index, airline, flight, timestamp));\n        oracleResponses[key] = ResponseInfo ({\n            requester: msg.sender,\n            isOpen: true\n        });\n\n        emit OracleRequest(index, airline, flight, timestamp);\n    }\n\n\n// region ORACLE MANAGEMENT\n\n    // Incremented to add pseudo-randomness at various points\n    uint8 private nonce = 0;    \n\n    // Fee to be paid when registering oracle\n    uint256 public constant REGISTRATION_FEE = 1 ether;\n\n    // Number of oracles that must respond for valid status\n    uint256 private constant MIN_RESPONSES = 3;\n\n\n    struct Oracle {\n        bool isRegistered;\n        uint8[3] indexes;        \n    }\n\n    // Track all registered oracles\n    mapping(address => Oracle) private oracles;\n\n    // Model for responses from oracles\n    struct ResponseInfo {\n        address requester;                              // Account that requested status\n        bool isOpen;                                    // If open, oracle responses are accepted\n        mapping(uint8 => address[]) responses;          // Mapping key is the status code reported                                                     // This lets us group responses and identify                                                     // the response that majority of the oracles\n    }\n\n    // Track all oracle responses\n    // Key = hash(index, flight, timestamp)\n    mapping(bytes32 => ResponseInfo) private oracleResponses;\n\n    // Event fired each time an oracle submits a response\n    event FlightStatusInfo(address airline, string flight, string timestamp, uint8 status);\n\n    event OracleReport(address airline, string flight, string timestamp, uint8 status);\n\n    // Event fired when flight status request is submitted\n    // Oracles track this and if they have a matching index\n    // they fetch data and submit a response\n    event OracleRequest(uint8 index, address airline, string flight, string timestamp);\n\n\n    // Register an oracle with the contract\n    function registerOracle() external payable {\n        // Require registration fee\n        require(msg.value >= REGISTRATION_FEE, \"Registration fee is required\");\n\n        uint8[3] memory indexes = generateIndexes(msg.sender);\n\n        oracles[msg.sender] = Oracle({ isRegistered: true, indexes: indexes });\n    }\n\n    function getMyIndexes() view external returns(uint8[3] memory) {\n        require(oracles[msg.sender].isRegistered, \"Not registered as an oracle\");\n\n        return oracles[msg.sender].indexes;\n    }\n\n\n\n\n    // Called by oracle when a response is available to an outstanding request\n    // For the response to be accepted, there must be a pending request that is open\n    // and matches one of the three Indexes randomly assigned to the oracle at the\n    // time of registration (i.e. uninvited oracles are not welcome)\n    function submitOracleResponse(uint8 index, address airline, string calldata flight, string calldata timestamp, uint8 statusCode) external {\n        require((oracles[msg.sender].indexes[0] == index) || (oracles[msg.sender].indexes[1] == index) || (oracles[msg.sender].indexes[2] == index), \"Index does not match oracle request\");\n\n\n        bytes32 key = keccak256(abi.encodePacked(index, airline, flight, timestamp)); \n        require(oracleResponses[key].isOpen, \"Flight or timestamp do not match oracle request\");\n\n        oracleResponses[key].responses[statusCode].push(msg.sender);\n\n        // Information isn't considered verified until at least MIN_RESPONSES\n        // oracles respond with the *** same *** information\n        emit OracleReport(airline, flight, timestamp, statusCode);\n        if (oracleResponses[key].responses[statusCode].length >= MIN_RESPONSES) {\n\n            emit FlightStatusInfo(airline, flight, timestamp, statusCode);\n\n            // Handle flight status as appropriate\n            processFlightStatus(airline, flight, timestamp, statusCode);\n        }\n    }\n\n\n    function getFlightKey(address airline, string memory flight, string memory timestamp) pure internal returns(bytes32) {\n        return keccak256(abi.encodePacked(airline, flight, timestamp));\n    }\n\n    // Returns array of three non-duplicating integers from 0-9\n    function generateIndexes(address account) internal returns(uint8[3] memory) {\n        uint8[3] memory indexes;\n        indexes[0] = getRandomIndex(account);\n        \n        indexes[1] = indexes[0];\n        while(indexes[1] == indexes[0]) {\n            indexes[1] = getRandomIndex(account);\n        }\n\n        indexes[2] = indexes[1];\n        while((indexes[2] == indexes[0]) || (indexes[2] == indexes[1])) {\n            indexes[2] = getRandomIndex(account);\n        }\n\n        return indexes;\n    }\n\n    // Returns array of three non-duplicating integers from 0-9\n    function getRandomIndex(address account) internal returns (uint8) {\n        uint8 maxValue = 10;\n\n        // Pseudo random number...the incrementing nonce adds variation\n        uint8 random = uint8(uint256(keccak256(abi.encodePacked(blockhash(block.number - nonce++), account))) % maxValue);\n\n        if (nonce > 250) {\n            nonce = 0;  // Can only fetch blockhashes for last 256 blocks so we adapt\n        }\n\n        return random;\n    }\n} \n\ncontract FlightSuretyData {\n    function isOperational() public view returns(bool);\n    function hasAirlineFunded(address airline) external view returns (bool);\n    function hasAirlineRegistered(address airline) external view returns (bool);\n    function registerAirline(address newAirline, address registeredAirline) external;\n    function fundAirline(address airline) payable external;\n    function getRegisteredAirlines() public view returns (uint256);\n    function isPassengerInsured(bytes32 flightKey, address passenger) external view returns (bool);\n    function registerFlight(bytes32 flightKey, address airline, string calldata flight, string calldata timestamp, string calldata departure, string calldata destination) external;\n    function hasFlightRegistered(bytes32 flightKey) public view returns (bool);\n    function hasFlightLanded(bytes32 flightKey) public view returns (bool);\n    function buy(bytes32 flightKey, address passenger, uint256 amount, uint256 multiplier) external payable;\n    function updateFlightStatus(bytes32 flightKey, uint8 statusCode) external;\n    function pay(address caller) external;\n}\n",
  "sourcePath": "C:/Blockchain/FlightSurety/contracts/FlightSuretyApp.sol",
  "compiler": {
    "name": "solc",
    "version": "0.5.8+commit.23d335f2.Emscripten.clang"
  },
  "schemaVersion": "3.0.9",
  "updatedAt": "2019-05-28T11:17:05.126Z",
  "devdoc": {
    "methods": {
      "constructor": {
        "details": "Contract constructor    "
      },
      "getUintAddress()": {
        "details": "Add an airline to the registration queue    "
      }
    }
  },
  "userdoc": {
    "methods": {
      "isOperational()": {
        "notice": "*****************************************************************************************"
      }
    },
    "notice": "************************************************ "
  }
}