{
  "contractName": "FlightSuretyData",
  "abi": [
    {
      "constant": true,
      "inputs": [
        {
          "name": "",
          "type": "bytes32"
        }
      ],
      "name": "flights",
      "outputs": [
        {
          "name": "isRegistered",
          "type": "bool"
        },
        {
          "name": "airline",
          "type": "address"
        },
        {
          "name": "flight",
          "type": "string"
        },
        {
          "name": "departure",
          "type": "string"
        },
        {
          "name": "destination",
          "type": "string"
        },
        {
          "name": "timestamp",
          "type": "string"
        },
        {
          "name": "statusCode",
          "type": "uint8"
        }
      ],
      "payable": false,
      "stateMutability": "view",
      "type": "function"
    },
    {
      "constant": true,
      "inputs": [
        {
          "name": "",
          "type": "address"
        }
      ],
      "name": "airlines",
      "outputs": [
        {
          "name": "isRegistered",
          "type": "bool"
        },
        {
          "name": "isFunded",
          "type": "bool"
        }
      ],
      "payable": false,
      "stateMutability": "view",
      "type": "function"
    },
    {
      "constant": true,
      "inputs": [
        {
          "name": "",
          "type": "uint256"
        }
      ],
      "name": "registeredFlights",
      "outputs": [
        {
          "name": "",
          "type": "bytes32"
        }
      ],
      "payable": false,
      "stateMutability": "view",
      "type": "function"
    },
    {
      "constant": true,
      "inputs": [],
      "name": "registeredAirlines",
      "outputs": [
        {
          "name": "",
          "type": "uint256"
        }
      ],
      "payable": false,
      "stateMutability": "view",
      "type": "function"
    },
    {
      "constant": true,
      "inputs": [
        {
          "name": "",
          "type": "address"
        }
      ],
      "name": "pendingWithdrawals",
      "outputs": [
        {
          "name": "",
          "type": "uint256"
        }
      ],
      "payable": false,
      "stateMutability": "view",
      "type": "function"
    },
    {
      "inputs": [
        {
          "name": "airlineAddress",
          "type": "address"
        }
      ],
      "payable": false,
      "stateMutability": "nonpayable",
      "type": "constructor"
    },
    {
      "anonymous": false,
      "inputs": [
        {
          "indexed": false,
          "name": "airline",
          "type": "address"
        }
      ],
      "name": "AirlineRegistered",
      "type": "event"
    },
    {
      "anonymous": false,
      "inputs": [
        {
          "indexed": false,
          "name": "airline",
          "type": "address"
        }
      ],
      "name": "AirlineFunded",
      "type": "event"
    },
    {
      "anonymous": false,
      "inputs": [
        {
          "indexed": false,
          "name": "flightKey",
          "type": "bytes32"
        }
      ],
      "name": "FlightRegistered",
      "type": "event"
    },
    {
      "anonymous": false,
      "inputs": [
        {
          "indexed": false,
          "name": "flightKey",
          "type": "bytes32"
        },
        {
          "indexed": false,
          "name": "passenger",
          "type": "address"
        }
      ],
      "name": "PassengerInsured",
      "type": "event"
    },
    {
      "anonymous": false,
      "inputs": [
        {
          "indexed": false,
          "name": "flightKey",
          "type": "bytes32"
        },
        {
          "indexed": false,
          "name": "statusCode",
          "type": "uint8"
        }
      ],
      "name": "FlightStatusUpdated",
      "type": "event"
    },
    {
      "anonymous": false,
      "inputs": [
        {
          "indexed": false,
          "name": "passenger",
          "type": "address"
        },
        {
          "indexed": false,
          "name": "amount",
          "type": "uint256"
        }
      ],
      "name": "PassengerCredited",
      "type": "event"
    },
    {
      "anonymous": false,
      "inputs": [
        {
          "indexed": false,
          "name": "caller",
          "type": "address"
        },
        {
          "indexed": false,
          "name": "amount",
          "type": "uint256"
        }
      ],
      "name": "AccountWithdrawal",
      "type": "event"
    },
    {
      "constant": true,
      "inputs": [],
      "name": "isOperational",
      "outputs": [
        {
          "name": "",
          "type": "bool"
        }
      ],
      "payable": false,
      "stateMutability": "view",
      "type": "function"
    },
    {
      "constant": false,
      "inputs": [
        {
          "name": "mode",
          "type": "bool"
        }
      ],
      "name": "setOperatingStatus",
      "outputs": [],
      "payable": false,
      "stateMutability": "nonpayable",
      "type": "function"
    },
    {
      "constant": true,
      "inputs": [
        {
          "name": "index",
          "type": "uint256"
        }
      ],
      "name": "getFlightKeyIndex",
      "outputs": [
        {
          "name": "",
          "type": "bytes32"
        }
      ],
      "payable": false,
      "stateMutability": "view",
      "type": "function"
    },
    {
      "constant": true,
      "inputs": [],
      "name": "getRegisteredFlights",
      "outputs": [
        {
          "name": "",
          "type": "uint256"
        }
      ],
      "payable": false,
      "stateMutability": "view",
      "type": "function"
    },
    {
      "constant": true,
      "inputs": [
        {
          "name": "flightKey",
          "type": "bytes32"
        }
      ],
      "name": "hasFlightLanded",
      "outputs": [
        {
          "name": "",
          "type": "bool"
        }
      ],
      "payable": false,
      "stateMutability": "view",
      "type": "function"
    },
    {
      "constant": true,
      "inputs": [
        {
          "name": "flightKey",
          "type": "bytes32"
        }
      ],
      "name": "hasFlightRegistered",
      "outputs": [
        {
          "name": "",
          "type": "bool"
        }
      ],
      "payable": false,
      "stateMutability": "view",
      "type": "function"
    },
    {
      "constant": true,
      "inputs": [
        {
          "name": "flightKey",
          "type": "bytes32"
        },
        {
          "name": "passenger",
          "type": "address"
        }
      ],
      "name": "isPassengerInsured",
      "outputs": [
        {
          "name": "",
          "type": "bool"
        }
      ],
      "payable": false,
      "stateMutability": "view",
      "type": "function"
    },
    {
      "constant": true,
      "inputs": [
        {
          "name": "caller",
          "type": "address"
        }
      ],
      "name": "isAuthorized",
      "outputs": [
        {
          "name": "",
          "type": "bool"
        }
      ],
      "payable": false,
      "stateMutability": "view",
      "type": "function"
    },
    {
      "constant": true,
      "inputs": [],
      "name": "getRegisteredAirlines",
      "outputs": [
        {
          "name": "",
          "type": "uint256"
        }
      ],
      "payable": false,
      "stateMutability": "view",
      "type": "function"
    },
    {
      "constant": true,
      "inputs": [
        {
          "name": "airline",
          "type": "address"
        }
      ],
      "name": "hasAirlineFunded",
      "outputs": [
        {
          "name": "",
          "type": "bool"
        }
      ],
      "payable": false,
      "stateMutability": "view",
      "type": "function"
    },
    {
      "constant": true,
      "inputs": [
        {
          "name": "airline",
          "type": "address"
        }
      ],
      "name": "hasAirlineRegistered",
      "outputs": [
        {
          "name": "",
          "type": "bool"
        }
      ],
      "payable": false,
      "stateMutability": "view",
      "type": "function"
    },
    {
      "constant": false,
      "inputs": [
        {
          "name": "caller",
          "type": "address"
        }
      ],
      "name": "authorizeCaller",
      "outputs": [],
      "payable": false,
      "stateMutability": "nonpayable",
      "type": "function"
    },
    {
      "constant": false,
      "inputs": [
        {
          "name": "caller",
          "type": "address"
        }
      ],
      "name": "deauthorizeCaller",
      "outputs": [],
      "payable": false,
      "stateMutability": "nonpayable",
      "type": "function"
    },
    {
      "constant": false,
      "inputs": [
        {
          "name": "airline",
          "type": "address"
        }
      ],
      "name": "fundAirline",
      "outputs": [],
      "payable": true,
      "stateMutability": "payable",
      "type": "function"
    },
    {
      "constant": false,
      "inputs": [
        {
          "name": "airline",
          "type": "address"
        },
        {
          "name": "caller",
          "type": "address"
        }
      ],
      "name": "registerAirline",
      "outputs": [],
      "payable": false,
      "stateMutability": "nonpayable",
      "type": "function"
    },
    {
      "constant": false,
      "inputs": [
        {
          "name": "flightKey",
          "type": "bytes32"
        },
        {
          "name": "airline",
          "type": "address"
        },
        {
          "name": "flight",
          "type": "string"
        },
        {
          "name": "timestamp",
          "type": "string"
        },
        {
          "name": "departure",
          "type": "string"
        },
        {
          "name": "destination",
          "type": "string"
        }
      ],
      "name": "registerFlight",
      "outputs": [],
      "payable": true,
      "stateMutability": "payable",
      "type": "function"
    },
    {
      "constant": false,
      "inputs": [
        {
          "name": "flightKey",
          "type": "bytes32"
        },
        {
          "name": "statusCode",
          "type": "uint8"
        }
      ],
      "name": "updateFlightStatus",
      "outputs": [],
      "payable": false,
      "stateMutability": "nonpayable",
      "type": "function"
    },
    {
      "constant": false,
      "inputs": [
        {
          "name": "flightKey",
          "type": "bytes32"
        },
        {
          "name": "passenger",
          "type": "address"
        },
        {
          "name": "amount",
          "type": "uint256"
        },
        {
          "name": "multiplier",
          "type": "uint256"
        }
      ],
      "name": "buy",
      "outputs": [],
      "payable": true,
      "stateMutability": "payable",
      "type": "function"
    },
    {
      "constant": false,
      "inputs": [
        {
          "name": "caller",
          "type": "address"
        }
      ],
      "name": "pay",
      "outputs": [],
      "payable": false,
      "stateMutability": "nonpayable",
      "type": "function"
    }
  ],
  "bytecode": "0x60806040526001600660146101000a81548160ff02191690831515021790555034801561002b57600080fd5b50604051602080612f678339810180604052602081101561004b57600080fd5b810190808051906020019092919050505033600660006101000a81548173ffffffffffffffffffffffffffffffffffffffff021916908373ffffffffffffffffffffffffffffffffffffffff1602179055506040518060400160405280600115158152602001600015158152506000808373ffffffffffffffffffffffffffffffffffffffff1673ffffffffffffffffffffffffffffffffffffffff16815260200190815260200160002060008201518160000160006101000a81548160ff02191690831515021790555060208201518160000160016101000a81548160ff0219169083151502179055509050506001808190555050612e17806101506000396000f3fe60806040526004361061014b5760003560e01c806361a528b4116100b6578063c23bcf091161006f578063c23bcf0914610b5b578063c7ba501814610b86578063cd905dff14610bf7578063e3c8736714610c26578063f3f4370314610c79578063fe9fbb8014610cde5761014b565b806361a528b4146109aa5780636873c21d146109d55780636fbb879814610a265780637071533814610a6a57806392e7b1eb14610a95578063a4196b3614610ae85761014b565b806331ac0d021161010857806331ac0d021461076b5780633e79d649146107d45780633f2aecea1461083d57806341684769146108855780634b826074146108f9578063540635b41461095b5761014b565b80630c11dedd146101505780630dda5315146101a1578063110466ed1461044b5780631276ecbf1461048857806320c5375e146104d75780632c388d5d1461071a575b600080fd5b34801561015c57600080fd5b5061019f6004803603602081101561017357600080fd5b81019080803573ffffffffffffffffffffffffffffffffffffffff169060200190929190505050610d47565b005b610449600480360360c08110156101b757600080fd5b8101908080359060200190929190803573ffffffffffffffffffffffffffffffffffffffff169060200190929190803590602001906401000000008111156101fe57600080fd5b82018360208201111561021057600080fd5b8035906020019184600183028401116401000000008311171561023257600080fd5b91908080601f016020809104026020016040519081016040528093929190818152602001838380828437600081840152601f19601f8201169050808301925050505050505091929192908035906020019064010000000081111561029557600080fd5b8201836020820111156102a757600080fd5b803590602001918460018302840111640100000000831117156102c957600080fd5b91908080601f016020809104026020016040519081016040528093929190818152602001838380828437600081840152601f19601f8201169050808301925050505050505091929192908035906020019064010000000081111561032c57600080fd5b82018360208201111561033e57600080fd5b8035906020019184600183028401116401000000008311171561036057600080fd5b91908080601f016020809104026020016040519081016040528093929190818152602001838380828437600081840152601f19601f820116905080830192505050505050509192919290803590602001906401000000008111156103c357600080fd5b8201836020820111156103d557600080fd5b803590602001918460018302840111640100000000831117156103f757600080fd5b91908080601f016020809104026020016040519081016040528093929190818152602001838380828437600081840152601f19601f82011690508083019250505050505050919291929050505061102c565b005b34801561045757600080fd5b506104866004803603602081101561046e57600080fd5b81019080803515159060200190929190505050611469565b005b34801561049457600080fd5b506104c1600480360360208110156104ab57600080fd5b8101908080359060200190929190505050611549565b6040518082815260200191505060405180910390f35b3480156104e357600080fd5b50610510600480360360208110156104fa57600080fd5b810190808035906020019092919050505061156a565b60405180881515151581526020018773ffffffffffffffffffffffffffffffffffffffff1673ffffffffffffffffffffffffffffffffffffffff168152602001806020018060200180602001806020018660ff1660ff16815260200185810385528a818151815260200191508051906020019080838360005b838110156105a4578082015181840152602081019050610589565b50505050905090810190601f1680156105d15780820380516001836020036101000a031916815260200191505b50858103845289818151815260200191508051906020019080838360005b8381101561060a5780820151818401526020810190506105ef565b50505050905090810190601f1680156106375780820380516001836020036101000a031916815260200191505b50858103835288818151815260200191508051906020019080838360005b83811015610670578082015181840152602081019050610655565b50505050905090810190601f16801561069d5780820380516001836020036101000a031916815260200191505b50858103825287818151815260200191508051906020019080838360005b838110156106d65780820151818401526020810190506106bb565b50505050905090810190601f1680156107035780820380516001836020036101000a031916815260200191505b509b50505050505050505050505060405180910390f35b34801561072657600080fd5b506107696004803603602081101561073d57600080fd5b81019080803573ffffffffffffffffffffffffffffffffffffffff169060200190929190505050611846565b005b34801561077757600080fd5b506107ba6004803603602081101561078e57600080fd5b81019080803573ffffffffffffffffffffffffffffffffffffffff169060200190929190505050611964565b604051808215151515815260200191505060405180910390f35b3480156107e057600080fd5b50610823600480360360208110156107f757600080fd5b81019080803573ffffffffffffffffffffffffffffffffffffffff1690602001909291905050506119bc565b604051808215151515815260200191505060405180910390f35b34801561084957600080fd5b506108836004803603604081101561086057600080fd5b8101908080359060200190929190803560ff169060200190929190505050611a14565b005b34801561089157600080fd5b506108d4600480360360208110156108a857600080fd5b81019080803573ffffffffffffffffffffffffffffffffffffffff169060200190929190505050611be0565b6040518083151515158152602001821515151581526020019250505060405180910390f35b6109596004803603608081101561090f57600080fd5b8101908080359060200190929190803573ffffffffffffffffffffffffffffffffffffffff1690602001909291908035906020019092919080359060200190929190505050611c1e565b005b34801561096757600080fd5b506109946004803603602081101561097e57600080fd5b8101908080359060200190929190505050612018565b6040518082815260200191505060405180910390f35b3480156109b657600080fd5b506109bf612039565b6040518082815260200191505060405180910390f35b3480156109e157600080fd5b50610a24600480360360208110156109f857600080fd5b81019080803573ffffffffffffffffffffffffffffffffffffffff16906020019092919050505061203f565b005b610a6860048036036020811015610a3c57600080fd5b81019080803573ffffffffffffffffffffffffffffffffffffffff169060200190929190505050612154565b005b348015610a7657600080fd5b50610a7f61236a565b6040518082815260200191505060405180910390f35b348015610aa157600080fd5b50610ace60048036036020811015610ab857600080fd5b8101908080359060200190929190505050612377565b604051808215151515815260200191505060405180910390f35b348015610af457600080fd5b50610b4160048036036040811015610b0b57600080fd5b8101908080359060200190929190803573ffffffffffffffffffffffffffffffffffffffff1690602001909291905050506123a9565b604051808215151515815260200191505060405180910390f35b348015610b6757600080fd5b50610b7061251c565b6040518082815260200191505060405180910390f35b348015610b9257600080fd5b50610bf560048036036040811015610ba957600080fd5b81019080803573ffffffffffffffffffffffffffffffffffffffff169060200190929190803573ffffffffffffffffffffffffffffffffffffffff169060200190929190505050612526565b005b348015610c0357600080fd5b50610c0c612805565b604051808215151515815260200191505060405180910390f35b348015610c3257600080fd5b50610c5f60048036036020811015610c4957600080fd5b810190808035906020019092919050505061281c565b604051808215151515815260200191505060405180910390f35b348015610c8557600080fd5b50610cc860048036036020811015610c9c57600080fd5b81019080803573ffffffffffffffffffffffffffffffffffffffff169060200190929190505050612849565b6040518082815260200191505060405180910390f35b348015610cea57600080fd5b50610d2d60048036036020811015610d0157600080fd5b81019080803573ffffffffffffffffffffffffffffffffffffffff169060200190929190505050612861565b604051808215151515815260200191505060405180910390f35b60011515600760003373ffffffffffffffffffffffffffffffffffffffff1673ffffffffffffffffffffffffffffffffffffffff16815260200190815260200160002060009054906101000a900460ff16151514610df0576040517f08c379a0000000000000000000000000000000000000000000000000000000008152600401808060200182810382526021815260200180612d856021913960400191505060405180910390fd5b600660149054906101000a900460ff16610e55576040517f08c379a0000000000000000000000000000000000000000000000000000000008152600401808060200182810382526025815260200180612dc76025913960400191505060405180910390fd5b6000600560008373ffffffffffffffffffffffffffffffffffffffff1673ffffffffffffffffffffffffffffffffffffffff1681526020019081526020016000205411610eed576040517f08c379a0000000000000000000000000000000000000000000000000000000008152600401808060200182810382526021815260200180612da66021913960400191505060405180910390fd5b6000600560008373ffffffffffffffffffffffffffffffffffffffff1673ffffffffffffffffffffffffffffffffffffffff1681526020019081526020016000205490506000600560008473ffffffffffffffffffffffffffffffffffffffff1673ffffffffffffffffffffffffffffffffffffffff168152602001908152602001600020819055508173ffffffffffffffffffffffffffffffffffffffff166108fc829081150290604051600060405180830381858888f19350505050158015610fbc573d6000803e3d6000fd5b507f0ce7685fe5ebac0a8d7a9e14339167d23465bb2686491c2d4c25d6cd9f61d5d28282604051808373ffffffffffffffffffffffffffffffffffffffff1673ffffffffffffffffffffffffffffffffffffffff1681526020018281526020019250505060405180910390a15050565b600660149054906101000a900460ff16611091576040517f08c379a0000000000000000000000000000000000000000000000000000000008152600401808060200182810382526025815260200180612dc76025913960400191505060405180910390fd5b60011515600760003373ffffffffffffffffffffffffffffffffffffffff1673ffffffffffffffffffffffffffffffffffffffff16815260200190815260200160002060009054906101000a900460ff1615151461113a576040517f08c379a0000000000000000000000000000000000000000000000000000000008152600401808060200182810382526021815260200180612d856021913960400191505060405180910390fd5b846000808273ffffffffffffffffffffffffffffffffffffffff1673ffffffffffffffffffffffffffffffffffffffff16815260200190815260200160002060000160009054906101000a900460ff166111fc576040517f08c379a00000000000000000000000000000000000000000000000000000000081526004018080602001828103825260138152602001807f4169726c696e65206e6f742066756e646564210000000000000000000000000081525060200191505060405180910390fd5b86600015156002600083815260200190815260200160002060000160009054906101000a900460ff1615151461129a576040517f08c379a000000000000000000000000000000000000000000000000000000000815260040180806020018281038252601d8152602001807f466c6967687420697320616c726561647920526567697374657265642100000081525060200191505060405180910390fd5b6040518060e001604052806001151581526020018873ffffffffffffffffffffffffffffffffffffffff168152602001878152602001858152602001848152602001868152602001600060ff16815250600260008a815260200190815260200160002060008201518160000160006101000a81548160ff02191690831515021790555060208201518160000160016101000a81548173ffffffffffffffffffffffffffffffffffffffff021916908373ffffffffffffffffffffffffffffffffffffffff1602179055506040820151816001019080519060200190611380929190612cdf565b50606082015181600201908051906020019061139d929190612cdf565b5060808201518160030190805190602001906113ba929190612cdf565b5060a08201518160040190805190602001906113d7929190612cdf565b5060c08201518160050160006101000a81548160ff021916908360ff16021790555090505060038890806001815401808255809150509060018203906000526020600020016000909192909190915055507fbc2e2465316fe44b06c0fb6f524b2edb5f66caa1ba5b1fe1e10ff178e8707e14886040518082815260200191505060405180910390a15050505050505050565b600660009054906101000a900473ffffffffffffffffffffffffffffffffffffffff1673ffffffffffffffffffffffffffffffffffffffff163373ffffffffffffffffffffffffffffffffffffffff161461152c576040517f08c379a000000000000000000000000000000000000000000000000000000000815260040180806020018281038252601c8152602001807f43616c6c6572206973206e6f7420636f6e7472616374206f776e65720000000081525060200191505060405180910390fd5b80600660146101000a81548160ff02191690831515021790555050565b60006003828154811061155857fe5b90600052602060002001549050919050565b60026020528060005260406000206000915090508060000160009054906101000a900460ff16908060000160019054906101000a900473ffffffffffffffffffffffffffffffffffffffff1690806001018054600181600116156101000203166002900480601f01602080910402602001604051908101604052809291908181526020018280546001816001161561010002031660029004801561164f5780601f106116245761010080835404028352916020019161164f565b820191906000526020600020905b81548152906001019060200180831161163257829003601f168201915b505050505090806002018054600181600116156101000203166002900480601f0160208091040260200160405190810160405280929190818152602001828054600181600116156101000203166002900480156116ed5780601f106116c2576101008083540402835291602001916116ed565b820191906000526020600020905b8154815290600101906020018083116116d057829003601f168201915b505050505090806003018054600181600116156101000203166002900480601f01602080910402602001604051908101604052809291908181526020018280546001816001161561010002031660029004801561178b5780601f106117605761010080835404028352916020019161178b565b820191906000526020600020905b81548152906001019060200180831161176e57829003601f168201915b505050505090806004018054600181600116156101000203166002900480601f0160208091040260200160405190810160405280929190818152602001828054600181600116156101000203166002900480156118295780601f106117fe57610100808354040283529160200191611829565b820191906000526020600020905b81548152906001019060200180831161180c57829003601f168201915b5050505050908060050160009054906101000a900460ff16905087565b600660009054906101000a900473ffffffffffffffffffffffffffffffffffffffff1673ffffffffffffffffffffffffffffffffffffffff163373ffffffffffffffffffffffffffffffffffffffff1614611909576040517f08c379a000000000000000000000000000000000000000000000000000000000815260040180806020018281038252601c8152602001807f43616c6c6572206973206e6f7420636f6e7472616374206f776e65720000000081525060200191505060405180910390fd5b6001600760008373ffffffffffffffffffffffffffffffffffffffff1673ffffffffffffffffffffffffffffffffffffffff16815260200190815260200160002060006101000a81548160ff02191690831515021790555050565b60008060008373ffffffffffffffffffffffffffffffffffffffff1673ffffffffffffffffffffffffffffffffffffffff16815260200190815260200160002060000160019054906101000a900460ff169050919050565b60008060008373ffffffffffffffffffffffffffffffffffffffff1673ffffffffffffffffffffffffffffffffffffffff16815260200190815260200160002060000160009054906101000a900460ff169050919050565b600660149054906101000a900460ff16611a79576040517f08c379a0000000000000000000000000000000000000000000000000000000008152600401808060200182810382526025815260200180612dc76025913960400191505060405180910390fd5b60011515600760003373ffffffffffffffffffffffffffffffffffffffff1673ffffffffffffffffffffffffffffffffffffffff16815260200190815260200160002060009054906101000a900460ff16151514611b22576040517f08c379a0000000000000000000000000000000000000000000000000000000008152600401808060200182810382526021815260200180612d856021913960400191505060405180910390fd5b60006002600084815260200190815260200160002060050160009054906101000a900460ff1660ff161415611b9757806002600084815260200190815260200160002060050160006101000a81548160ff021916908360ff16021790555060148160ff161415611b9657611b95826128b7565b5b5b7f6b7efd1d185714db0de1fb8acf2c5fba53efbdf80a89fe0385d209e3503adfc58282604051808381526020018260ff1660ff1681526020019250505060405180910390a15050565b60006020528060005260406000206000915090508060000160009054906101000a900460ff16908060000160019054906101000a900460ff16905082565b600660149054906101000a900460ff16611c83576040517f08c379a0000000000000000000000000000000000000000000000000000000008152600401808060200182810382526025815260200180612dc76025913960400191505060405180910390fd5b60011515600760003373ffffffffffffffffffffffffffffffffffffffff1673ffffffffffffffffffffffffffffffffffffffff16815260200190815260200160002060009054906101000a900460ff16151514611d2c576040517f08c379a0000000000000000000000000000000000000000000000000000000008152600401808060200182810382526021815260200180612d856021913960400191505060405180910390fd5b83600115156002600083815260200190815260200160002060000160009054906101000a900460ff16151514611dca576040517f08c379a00000000000000000000000000000000000000000000000000000000081526004018080602001828103825260198152602001807f466c69676874206973206e6f742052656769737465726564210000000000000081525060200191505060405180910390fd5b8460006002600083815260200190815260200160002060050160009054906101000a900460ff1660ff1614611e67576040517f08c379a000000000000000000000000000000000000000000000000000000000815260040180806020018281038252601a8152602001807f466c696768742068617320616c7265616479206c616e6465642100000000000081525060200191505060405180910390fd5b600073ffffffffffffffffffffffffffffffffffffffff166108fc349081150290604051600060405180830381858888f19350505050158015611eae573d6000803e3d6000fd5b506004600087815260200190815260200160002060405180608001604052808773ffffffffffffffffffffffffffffffffffffffff168152602001868152602001858152602001600015158152509080600181540180825580915050906001820390600052602060002090600402016000909192909190915060008201518160000160006101000a81548173ffffffffffffffffffffffffffffffffffffffff021916908373ffffffffffffffffffffffffffffffffffffffff160217905550602082015181600101556040820151816002015560608201518160030160006101000a81548160ff0219169083151502179055505050507f7e90b13f2c96fdeb953f7b009d735760e08ff947ec82869215c1705f9b3f9a018686604051808381526020018273ffffffffffffffffffffffffffffffffffffffff1673ffffffffffffffffffffffffffffffffffffffff1681526020019250505060405180910390a1505050505050565b6003818154811061202557fe5b906000526020600020016000915090505481565b60015481565b600660009054906101000a900473ffffffffffffffffffffffffffffffffffffffff1673ffffffffffffffffffffffffffffffffffffffff163373ffffffffffffffffffffffffffffffffffffffff1614612102576040517f08c379a000000000000000000000000000000000000000000000000000000000815260040180806020018281038252601c8152602001807f43616c6c6572206973206e6f7420636f6e7472616374206f776e65720000000081525060200191505060405180910390fd5b600760008273ffffffffffffffffffffffffffffffffffffffff1673ffffffffffffffffffffffffffffffffffffffff16815260200190815260200160002060006101000a81549060ff021916905550565b600660149054906101000a900460ff166121b9576040517f08c379a0000000000000000000000000000000000000000000000000000000008152600401808060200182810382526025815260200180612dc76025913960400191505060405180910390fd5b60011515600760003373ffffffffffffffffffffffffffffffffffffffff1673ffffffffffffffffffffffffffffffffffffffff16815260200190815260200160002060009054906101000a900460ff16151514612262576040517f08c379a0000000000000000000000000000000000000000000000000000000008152600401808060200182810382526021815260200180612d856021913960400191505060405180910390fd5b600073ffffffffffffffffffffffffffffffffffffffff166108fc349081150290604051600060405180830381858888f193505050501580156122a9573d6000803e3d6000fd5b5060016000808373ffffffffffffffffffffffffffffffffffffffff1673ffffffffffffffffffffffffffffffffffffffff16815260200190815260200160002060000160016101000a81548160ff0219169083151502179055507f3c348ba34685212d5d04f432a9e569b642b180df0227a6b0c899050c4acb7af881604051808273ffffffffffffffffffffffffffffffffffffffff1673ffffffffffffffffffffffffffffffffffffffff16815260200191505060405180910390a150565b6000600380549050905090565b6000806002600084815260200190815260200160002060050160009054906101000a900460ff1660ff16119050919050565b6000606060046000858152602001908152602001600020805480602002602001604051908101604052809291908181526020016000905b8282101561249757838290600052602060002090600402016040518060800160405290816000820160009054906101000a900473ffffffffffffffffffffffffffffffffffffffff1673ffffffffffffffffffffffffffffffffffffffff1673ffffffffffffffffffffffffffffffffffffffff16815260200160018201548152602001600282015481526020016003820160009054906101000a900460ff161515151581525050815260200190600101906123e0565b50505050905060008090505b815181101561250f578373ffffffffffffffffffffffffffffffffffffffff168282815181106124cf57fe5b60200260200101516000015173ffffffffffffffffffffffffffffffffffffffff16141561250257600192505050612516565b80806001019150506124a3565b5060009150505b92915050565b6000600154905090565b600660149054906101000a900460ff1661258b576040517f08c379a0000000000000000000000000000000000000000000000000000000008152600401808060200182810382526025815260200180612dc76025913960400191505060405180910390fd5b60011515600760003373ffffffffffffffffffffffffffffffffffffffff1673ffffffffffffffffffffffffffffffffffffffff16815260200190815260200160002060009054906101000a900460ff16151514612634576040517f08c379a0000000000000000000000000000000000000000000000000000000008152600401808060200182810382526021815260200180612d856021913960400191505060405180910390fd5b806000808273ffffffffffffffffffffffffffffffffffffffff1673ffffffffffffffffffffffffffffffffffffffff16815260200190815260200160002060000160009054906101000a900460ff166126f6576040517f08c379a00000000000000000000000000000000000000000000000000000000081526004018080602001828103825260138152602001807f4169726c696e65206e6f742066756e646564210000000000000000000000000081525060200191505060405180910390fd5b6040518060400160405280600115158152602001600015158152506000808573ffffffffffffffffffffffffffffffffffffffff1673ffffffffffffffffffffffffffffffffffffffff16815260200190815260200160002060008201518160000160006101000a81548160ff02191690831515021790555060208201518160000160016101000a81548160ff02191690831515021790555090505060018054016001819055507f89a6354fb229eda6cbc28306798727b4d524818d2c375220bc3f360f24cffaca83604051808273ffffffffffffffffffffffffffffffffffffffff1673ffffffffffffffffffffffffffffffffffffffff16815260200191505060405180910390a1505050565b6000600660149054906101000a900460ff16905090565b60006002600083815260200190815260200160002060000160009054906101000a900460ff169050919050565b60056020528060005260406000206000915090505481565b6000600760008373ffffffffffffffffffffffffffffffffffffffff1673ffffffffffffffffffffffffffffffffffffffff16815260200190815260200160002060009054906101000a900460ff169050919050565b600660149054906101000a900460ff1661291c576040517f08c379a0000000000000000000000000000000000000000000000000000000008152600401808060200182810382526025815260200180612dc76025913960400191505060405180910390fd5b60011515600760003373ffffffffffffffffffffffffffffffffffffffff1673ffffffffffffffffffffffffffffffffffffffff16815260200190815260200160002060009054906101000a900460ff161515146129c5576040517f08c379a0000000000000000000000000000000000000000000000000000000008152600401808060200182810382526021815260200180612d856021913960400191505060405180910390fd5b60008090505b6004600083815260200190815260200160002080549050811015612c4b5760001515600460008481526020019081526020016000208281548110612a0b57fe5b906000526020600020906004020160030160009054906101000a900460ff1615151415612c3e576001600460008481526020019081526020016000208281548110612a5257fe5b906000526020600020906004020160030160006101000a81548160ff0219169083151502179055506000612ae4600460008581526020019081526020016000208381548110612a9d57fe5b906000526020600020906004020160010154600460008681526020019081526020016000208481548110612acd57fe5b906000526020600020906004020160020154612c4f565b90508060056000600460008781526020019081526020016000208581548110612b0957fe5b906000526020600020906004020160000160009054906101000a900473ffffffffffffffffffffffffffffffffffffffff1673ffffffffffffffffffffffffffffffffffffffff1673ffffffffffffffffffffffffffffffffffffffff168152602001908152602001600020600082825401925050819055507ffe9067d701ba2a9ca5f956902c52a3056cb785ab32a7655c01189b5a3079822f600460008581526020019081526020016000208381548110612bc157fe5b906000526020600020906004020160000160009054906101000a900473ffffffffffffffffffffffffffffffffffffffff1682604051808373ffffffffffffffffffffffffffffffffffffffff1673ffffffffffffffffffffffffffffffffffffffff1681526020018281526020019250505060405180910390a1505b80806001019150506129cb565b5050565b6000612c776064612c698486612c7f90919063ffffffff16565b612cb990919063ffffffff16565b905092915050565b600080831415612c925760009050612cb3565b6000828402905082848281612ca357fe5b0414612cae57600080fd5b809150505b92915050565b6000808211612cc757600080fd5b6000828481612cd257fe5b0490508091505092915050565b828054600181600116156101000203166002900490600052602060002090601f016020900481019282601f10612d2057805160ff1916838001178555612d4e565b82800160010185558215612d4e579182015b82811115612d4d578251825591602001919060010190612d32565b5b509050612d5b9190612d5f565b5090565b612d8191905b80821115612d7d576000816000905550600101612d65565b5090565b9056fe43616c6c6572206973206e6f7420617574686f72697a656420636f6e74726163744e6f2066756e647320617661696c61626c6520666f72207769746864726177616c436f6e74726163742069732063757272656e746c79206e6f74206f7065726174696f6e616ca165627a7a723058205cd53be96f140ed4b0671a88bfc214c4b9f409e9bef77b739fb963602ce1b7500029",
  "source": "pragma solidity ^0.5.6;\n\nimport \"../node_modules/openzeppelin-solidity/contracts/math/SafeMath.sol\";\n\ncontract FlightSuretyData {\n    \n    using SafeMath for uint256;\n\n    struct Airline {\n        bool isRegistered;\n        bool isFunded;\n    }\n\n    struct Flight {\n        bool isRegistered;\n        address airline;\n        string flight;\n        string departure;\n        string destination;\n        string timestamp;\n        uint8 statusCode;\n    }\n\n    struct InsuredData {\n        address passenger;\n        //used to decouple insurance price and multiplier from data contract\n        uint256 amount;\n        uint256 multiplier;\n        bool credited;\n    }\n\n    mapping(address => Airline) public airlines;\n    uint256 public registeredAirlines;\n    mapping(bytes32 => Flight) public flights;\n    bytes32[] public registeredFlights;\n    mapping(bytes32 => InsuredData[]) flightInsuredPassengers;\n    mapping(address => uint) public pendingWithdrawals;\n\n    /********************************************************************************************/\n    /*                                       DATA VARIABLES                                     */\n    /********************************************************************************************/\n\n    address private contractOwner;                                      // Account used to deploy contract\n    bool private operational = true;\n    mapping(address => bool) private authorizedCallers;                                    // Blocks all state changes throughout the contract if false                                   \n\n    /********************************************************************************************/\n    /*                                       EVENT DEFINITIONS                                  */\n    /********************************************************************************************/\n\n    event AirlineRegistered(address airline);\n    event AirlineFunded(address airline);\n    event FlightRegistered(bytes32 flightKey);\n    event PassengerInsured(bytes32 flightKey, address passenger);\n    event FlightStatusUpdated(bytes32 flightKey, uint8 statusCode);\n    event PassengerCredited(address passenger, uint256 amount);\n    event AccountWithdrawal(address caller, uint256 amount);\n\n\n    /**\n    * @dev Constructor\n    *      The deploying account becomes contractOwner\n    */\n    constructor(address airlineAddress) public {\n        contractOwner = msg.sender;\n        airlines[airlineAddress] = Airline(true, false);\n        registeredAirlines = 1;\n    }\n\n    /********************************************************************************************/\n    /*                                       FUNCTION MODIFIERS                                 */\n    /********************************************************************************************/\n\n    // Modifiers help avoid duplication of code. They are typically used to validate something\n    // before a function is allowed to be executed.\n\n    /**\n    * @dev Modifier that requires the \"operational\" boolean variable to be \"true\"\n    *      This is used on all state changing functions to pause the contract in \n    *      the event there is an issue that needs to be fixed\n    */\n    modifier requireIsOperational() {\n        require(operational, \"Contract is currently not operational\");\n        _;  // All modifiers require an \"_\" which indicates where the function body will be added\n    }\n\n    /**\n    * @dev Modifier that requires the \"ContractOwner\" account to be the function caller\n    */\n    modifier requireContractOwner() {\n        require(msg.sender == contractOwner, \"Caller is not contract owner\");\n        _;\n    }\n\n    modifier isAuthorizedCaller() {\n        require((authorizedCallers[msg.sender] == true), \"Caller is not authorized contract\");\n        _;\n    }\n\n    modifier isAirlineRegistered(address airline) {\n        require(airlines[airline].isRegistered, \"Airline is not registered!\");\n        _;\n    }\n\n    modifier checkValue(uint256 price) {\n        _;\n        uint amountToReturn = msg.value - price;\n        msg.sender.transfer(amountToReturn);\n    }\n\n    modifier isFlightRegistered(bytes32 flightKey) {\n        require(flights[flightKey].isRegistered == true, \"Flight is not Registered!\");\n        _;\n    }\n\n    modifier isFlightNotRegistered(bytes32 flightKey) {\n        require(flights[flightKey].isRegistered == false, \"Flight is already Registered!\");\n        _;\n    }\n\n    modifier isFlightNotLanded(bytes32 flightKey) {\n        require(flights[flightKey].statusCode == 0, \"Flight has already landed!\");\n        _;\n    }\n\n    modifier isAirlineFunded(address airline) {\n        require(airlines[airline].isRegistered, \"Airline not funded!\");\n        _;\n    }\n\n\n\n    /********************************************************************************************/\n    /*                                       UTILITY FUNCTIONS                                  */\n    /********************************************************************************************/\n\n    /**\n    * @dev Get operating status of contract\n    *\n    * @return A bool that is the current operating status\n    */      \n    function isOperational() public view returns(bool) {\n        return operational;\n    }\n\n     /**\n    * @dev Sets contract operations on/off\n    *\n    * When operational mode is disabled, all write transactions except for this one will fail\n    */    \n    function setOperatingStatus(bool mode) external requireContractOwner {\n        operational = mode;\n    }\n\n    function getFlightKeyIndex(uint index) public view returns (bytes32) {\n        return registeredFlights[index];\n    }\n\n    function getRegisteredFlights() public view returns (uint) {\n        return registeredFlights.length;\n    }\n\n    function hasFlightLanded(bytes32 flightKey) public view returns (bool) {\n        return flights[flightKey].statusCode > 0;\n    }\n\n    function hasFlightRegistered(bytes32 flightKey) public view returns (bool) {\n        return flights[flightKey].isRegistered;\n    }\n\n    function isPassengerInsured(bytes32 flightKey, address passenger) external view returns (bool) {\n        InsuredData[] memory insuredPassengers = flightInsuredPassengers[flightKey];\n        for (uint i = 0; i < insuredPassengers.length; i++) {\n            if (insuredPassengers[i].passenger == passenger) {\n                return true;\n            }\n        }\n        return false;\n    } \n\n    function isAuthorized(address caller) public view returns (bool) {\n        return authorizedCallers[caller];\n    }\n\n    function getRegisteredAirlines() public view returns (uint256) {\n        return registeredAirlines;\n    }\n\n    function hasAirlineFunded(address airline) public view returns (bool) {\n        return airlines[airline].isFunded;\n    }\n\n    function hasAirlineRegistered(address airline) public view returns (bool) {\n        return airlines[airline].isRegistered;\n    }\n\n    function authorizeCaller(address caller) external requireContractOwner {\n        authorizedCallers[caller] = true;\n    }\n\n    function deauthorizeCaller(address caller) external requireContractOwner {\n        delete authorizedCallers[caller];\n    }\n\n    /********************************************************************************************/\n    /*                                     SMART CONTRACT FUNCTIONS                             */\n    /********************************************************************************************/\n\n   /**\n    * @dev Add an airline to the registration queue\n    *      Can only be called from FlightSuretyApp contract\n    *\n    */\n\n    function fundAirline(address airline) external payable requireIsOperational isAuthorizedCaller {\n        address(0).transfer(msg.value);\n        airlines[airline].isFunded = true;\n        emit AirlineFunded(airline);\n    }  \n\n    function registerAirline(address airline, address caller) external requireIsOperational isAuthorizedCaller isAirlineFunded(caller) {\n            airlines[airline] = Airline(true, false);\n            registeredAirlines = registeredAirlines + 1;\n            emit AirlineRegistered(airline);\n    }\n\n    function registerFlight(bytes32 flightKey, address airline, string memory flight, string memory timestamp, string memory departure, string memory destination) public payable requireIsOperational isAuthorizedCaller isAirlineFunded(airline) isFlightNotRegistered(flightKey) {\n        flights[flightKey] = Flight(\n            true,\n            airline,\n            flight,\n            departure,\n            destination,\n            timestamp,\n            0\n        );\n\n        registeredFlights.push(flightKey);\n        emit FlightRegistered(flightKey);\n    }\n\n    function updateFlightStatus(bytes32 flightKey, uint8 statusCode) external requireIsOperational isAuthorizedCaller {\n        if (flights[flightKey].statusCode == 0) {\n            flights[flightKey].statusCode = statusCode;\n            if (statusCode == 20) {\n                creditInsurees(flightKey);\n            }\n        }\n        emit FlightStatusUpdated(flightKey, statusCode);\n    }\n\n   /**\n    * @dev Buy insurance for a flight\n    *\n    */   \n    function buy(bytes32 flightKey, address passenger, uint256 amount, uint256 multiplier) external payable requireIsOperational isAuthorizedCaller isFlightRegistered(flightKey) isFlightNotLanded(flightKey) {\n        address(0).transfer(msg.value);\n        flightInsuredPassengers[flightKey].push(InsuredData(\n            passenger,\n            amount,\n            multiplier,\n            false\n        ));\n\n        emit PassengerInsured(flightKey, passenger);\n    }\n\n    /**\n     *  @dev Credits payouts to insurees\n    */\n    function creditInsurees(bytes32 flightKey) internal requireIsOperational isAuthorizedCaller {\n        for (uint i = 0; i < flightInsuredPassengers[flightKey].length; i++) {\n            if (flightInsuredPassengers[flightKey][i].credited == false) {\n                flightInsuredPassengers[flightKey][i].credited = true;\n                uint256 amount = calculatePremium(flightInsuredPassengers[flightKey][i].amount,\n                                                    flightInsuredPassengers[flightKey][i].multiplier);\n               pendingWithdrawals[flightInsuredPassengers[flightKey][i].passenger] += amount;\n               emit PassengerCredited(flightInsuredPassengers[flightKey][i].passenger, amount);                                     \n            }\n        }\n    }\n\n    function calculatePremium(uint256 amount, uint256 multiplier) private pure returns(uint256) {\n        return amount.mul(multiplier).div(100);\n    }\n    \n\n    /**\n     *  @dev Transfers eligible payout funds to insuree\n     *\n    */\n    function pay(address caller) external isAuthorizedCaller requireIsOperational {\n        require(pendingWithdrawals[caller] > 0, \"No funds available for withdrawal\");\n        uint256 amount = pendingWithdrawals[caller];\n        pendingWithdrawals[caller] = 0;\n        address(uint160(address(caller))).transfer(amount);\n        emit AccountWithdrawal(caller, amount);\n    }\n\n    function getFlightKey(address airline, string memory flight, string memory timestamp) pure internal returns(bytes32) {\n        return keccak256(abi.encodePacked(airline, flight, timestamp));\n    }\n\n}\n\n",
  "sourcePath": "C:/Blockchain/FlightSurety/contracts/FlightSuretyData.sol",
  "compiler": {
    "name": "solc",
    "version": "0.5.8+commit.23d335f2.Emscripten.clang"
  },
  "schemaVersion": "3.0.9",
  "updatedAt": "2019-05-27T12:30:16.020Z",
  "devdoc": {
    "methods": {
      "buy(bytes32,address,uint256,uint256)": {
        "details": "Buy insurance for a flight    "
      },
      "constructor": {
        "details": "Constructor     The deploying account becomes contractOwner"
      },
      "fundAirline(address)": {
        "details": "Add an airline to the registration queue     Can only be called from FlightSuretyApp contract    "
      },
      "isOperational()": {
        "details": "Get operating status of contract",
        "return": "A bool that is the current operating status"
      },
      "pay(address)": {
        "details": "Transfers eligible payout funds to insuree    "
      },
      "setOperatingStatus(bool)": {
        "details": "Sets contract operations on/off    * When operational mode is disabled, all write transactions except for this one will fail"
      }
    }
  },
  "userdoc": {
    "methods": {}
  }
}