{
  "contractName": "FlightSuretyApp",
  "abi": [
    {
      "constant": true,
      "inputs": [],
      "name": "AIRLINE_FUNDING_VALUE",
      "outputs": [
        {
          "name": "",
          "type": "uint256"
        }
      ],
      "payable": false,
      "stateMutability": "view",
      "type": "function",
      "signature": "0x3183db70"
    },
    {
      "constant": true,
      "inputs": [],
      "name": "INSURANCE_COST",
      "outputs": [
        {
          "name": "",
          "type": "uint256"
        }
      ],
      "payable": false,
      "stateMutability": "view",
      "type": "function",
      "signature": "0x4696c57d"
    },
    {
      "constant": true,
      "inputs": [],
      "name": "REGISTRATION_FEE",
      "outputs": [
        {
          "name": "",
          "type": "uint256"
        }
      ],
      "payable": false,
      "stateMutability": "view",
      "type": "function",
      "signature": "0x64b4f751"
    },
    {
      "inputs": [
        {
          "name": "contractAddress",
          "type": "address"
        }
      ],
      "payable": false,
      "stateMutability": "nonpayable",
      "type": "constructor",
      "signature": "constructor"
    },
    {
      "anonymous": false,
      "inputs": [
        {
          "indexed": false,
          "name": "airline",
          "type": "address"
        },
        {
          "indexed": false,
          "name": "flight",
          "type": "string"
        },
        {
          "indexed": false,
          "name": "timestamp",
          "type": "uint256"
        },
        {
          "indexed": false,
          "name": "status",
          "type": "uint8"
        }
      ],
      "name": "FlightStatusInfo",
      "type": "event",
      "signature": "0xe23f5229de535c091e3b7bec2665f5d698192d3b31393066e8987b7a05076b6c"
    },
    {
      "anonymous": false,
      "inputs": [
        {
          "indexed": false,
          "name": "airline",
          "type": "address"
        },
        {
          "indexed": false,
          "name": "flight",
          "type": "string"
        },
        {
          "indexed": false,
          "name": "timestamp",
          "type": "uint256"
        },
        {
          "indexed": false,
          "name": "status",
          "type": "uint8"
        }
      ],
      "name": "OracleReport",
      "type": "event",
      "signature": "0x43c853095c2752648493c88b4baac4d580d2594ffb00c6f1d4242d844514f783"
    },
    {
      "anonymous": false,
      "inputs": [
        {
          "indexed": false,
          "name": "index",
          "type": "uint8"
        },
        {
          "indexed": false,
          "name": "airline",
          "type": "address"
        },
        {
          "indexed": false,
          "name": "flight",
          "type": "string"
        },
        {
          "indexed": false,
          "name": "timestamp",
          "type": "uint256"
        }
      ],
      "name": "OracleRequest",
      "type": "event",
      "signature": "0x3ed01f2c3fc24c6b329d931e35b03e390d23497d22b3f90e15b600343e93df11"
    },
    {
      "constant": true,
      "inputs": [],
      "name": "isOperational",
      "outputs": [
        {
          "name": "",
          "type": "bool"
        }
      ],
      "payable": false,
      "stateMutability": "view",
      "type": "function",
      "signature": "0xcd905dff"
    },
    {
      "constant": true,
      "inputs": [
        {
          "name": "airline",
          "type": "address"
        },
        {
          "name": "flight",
          "type": "string"
        },
        {
          "name": "timestamp",
          "type": "uint256"
        }
      ],
      "name": "isFlightRegistered",
      "outputs": [
        {
          "name": "",
          "type": "bool"
        }
      ],
      "payable": false,
      "stateMutability": "view",
      "type": "function",
      "signature": "0x241a53cb"
    },
    {
      "constant": true,
      "inputs": [
        {
          "name": "airline",
          "type": "address"
        },
        {
          "name": "flight",
          "type": "string"
        },
        {
          "name": "timestamp",
          "type": "uint256"
        },
        {
          "name": "passenger",
          "type": "address"
        }
      ],
      "name": "isPassengerInsuredForFlight",
      "outputs": [
        {
          "name": "",
          "type": "bool"
        }
      ],
      "payable": false,
      "stateMutability": "view",
      "type": "function",
      "signature": "0xd7b149c6"
    },
    {
      "constant": false,
      "inputs": [],
      "name": "fundAirline",
      "outputs": [],
      "payable": true,
      "stateMutability": "payable",
      "type": "function",
      "signature": "0x9ed18927"
    },
    {
      "constant": true,
      "inputs": [],
      "name": "getRegisteredAirlines",
      "outputs": [
        {
          "name": "",
          "type": "uint256"
        }
      ],
      "payable": false,
      "stateMutability": "view",
      "type": "function",
      "signature": "0xc23bcf09"
    },
    {
      "constant": false,
      "inputs": [
        {
          "name": "airline",
          "type": "address"
        }
      ],
      "name": "registerAirline",
      "outputs": [
        {
          "name": "success",
          "type": "bool"
        },
        {
          "name": "votes",
          "type": "uint256"
        }
      ],
      "payable": false,
      "stateMutability": "nonpayable",
      "type": "function",
      "signature": "0xbdfd9877"
    },
    {
      "constant": false,
      "inputs": [
        {
          "name": "flight",
          "type": "string"
        },
        {
          "name": "timestamp",
          "type": "uint256"
        },
        {
          "name": "departure",
          "type": "string"
        },
        {
          "name": "destination",
          "type": "string"
        }
      ],
      "name": "registerFlight",
      "outputs": [],
      "payable": false,
      "stateMutability": "nonpayable",
      "type": "function",
      "signature": "0xcbc03b47"
    },
    {
      "constant": false,
      "inputs": [
        {
          "name": "airline",
          "type": "address"
        },
        {
          "name": "flight",
          "type": "string"
        },
        {
          "name": "timestamp",
          "type": "uint256"
        }
      ],
      "name": "buyInsurance",
      "outputs": [],
      "payable": true,
      "stateMutability": "payable",
      "type": "function",
      "signature": "0x2f6721d0"
    },
    {
      "constant": false,
      "inputs": [],
      "name": "pay",
      "outputs": [],
      "payable": false,
      "stateMutability": "nonpayable",
      "type": "function",
      "signature": "0x1b9265b8"
    },
    {
      "constant": false,
      "inputs": [
        {
          "name": "airline",
          "type": "address"
        },
        {
          "name": "flight",
          "type": "string"
        },
        {
          "name": "timestamp",
          "type": "uint256"
        }
      ],
      "name": "fetchFlightStatus",
      "outputs": [],
      "payable": false,
      "stateMutability": "nonpayable",
      "type": "function",
      "signature": "0xf83f11c0"
    },
    {
      "constant": false,
      "inputs": [],
      "name": "registerOracle",
      "outputs": [],
      "payable": true,
      "stateMutability": "payable",
      "type": "function",
      "signature": "0x339d2590"
    },
    {
      "constant": true,
      "inputs": [],
      "name": "getMyIndexes",
      "outputs": [
        {
          "name": "",
          "type": "uint8[3]"
        }
      ],
      "payable": false,
      "stateMutability": "view",
      "type": "function",
      "signature": "0x5f1cc0e6"
    },
    {
      "constant": false,
      "inputs": [
        {
          "name": "index",
          "type": "uint8"
        },
        {
          "name": "airline",
          "type": "address"
        },
        {
          "name": "flight",
          "type": "string"
        },
        {
          "name": "timestamp",
          "type": "uint256"
        },
        {
          "name": "statusCode",
          "type": "uint8"
        }
      ],
      "name": "submitOracleResponse",
      "outputs": [],
      "payable": false,
      "stateMutability": "nonpayable",
      "type": "function",
      "signature": "0xc10f2700"
    }
  ],
  "bytecode": "0x60806040526000600260146101000a81548160ff021916908360ff16021790555034801561002c57600080fd5b506040516020806138cb8339810180604052602081101561004c57600080fd5b810190808051906020019092919050505033600160006101000a81548173ffffffffffffffffffffffffffffffffffffffff021916908373ffffffffffffffffffffffffffffffffffffffff16021790555080600260006101000a81548173ffffffffffffffffffffffffffffffffffffffff021916908373ffffffffffffffffffffffffffffffffffffffff160217905550506137dc806100ef6000396000f3fe608060405260043610610110576000357c0100000000000000000000000000000000000000000000000000000000900480639ed18927116100a7578063cbc03b4711610076578063cbc03b4714610526578063cd905dff14610660578063d7b149c61461068f578063f83f11c0146107b957610110565b80639ed18927146103b7578063bdfd9877146103c1578063c10f270014610431578063c23bcf09146104fb57610110565b8063339d2590116100e3578063339d2590146103045780634696c57d1461030e5780635f1cc0e61461033957806364b4f7511461038c57610110565b80631b9265b814610115578063241a53cb1461012c5780632f6721d0146102365780633183db70146102d9575b600080fd5b34801561012157600080fd5b5061012a610869565b005b34801561013857600080fd5b5061021c6004803603606081101561014f57600080fd5b81019080803573ffffffffffffffffffffffffffffffffffffffff1690602001909291908035906020019064010000000081111561018c57600080fd5b82018360208201111561019e57600080fd5b803590602001918460018302840111640100000000831117156101c057600080fd5b91908080601f016020809104026020016040519081016040528093929190818152602001838380828437600081840152601f19601f8201169050808301925050505050505091929192908035906020019092919050505061099d565b604051808215151515815260200191505060405180910390f35b6102d76004803603606081101561024c57600080fd5b81019080803573ffffffffffffffffffffffffffffffffffffffff1690602001909291908035906020019064010000000081111561028957600080fd5b82018360208201111561029b57600080fd5b803590602001918460018302840111640100000000831117156102bd57600080fd5b909192939192939080359060200190929190505050610a81565b005b3480156102e557600080fd5b506102ee6111c7565b6040518082815260200191505060405180910390f35b61030c6111d3565b005b34801561031a57600080fd5b506103236112f9565b6040518082815260200191505060405180910390f35b34801561034557600080fd5b5061034e611305565b6040518082600360200280838360005b8381101561037957808201518184015260208101905061035e565b5050505090500191505060405180910390f35b34801561039857600080fd5b506103a1611478565b6040518082815260200191505060405180910390f35b6103bf611484565b005b3480156103cd57600080fd5b50610410600480360360208110156103e457600080fd5b81019080803573ffffffffffffffffffffffffffffffffffffffff169060200190929190505050611864565b60405180831515151581526020018281526020019250505060405180910390f35b34801561043d57600080fd5b506104f9600480360360a081101561045457600080fd5b81019080803560ff169060200190929190803573ffffffffffffffffffffffffffffffffffffffff1690602001909291908035906020019064010000000081111561049e57600080fd5b8201836020820111156104b057600080fd5b803590602001918460018302840111640100000000831117156104d257600080fd5b909192939192939080359060200190929190803560ff169060200190929190505050612198565b005b34801561050757600080fd5b506105106126e4565b6040518082815260200191505060405180910390f35b34801561053257600080fd5b5061065e6004803603608081101561054957600080fd5b810190808035906020019064010000000081111561056657600080fd5b82018360208201111561057857600080fd5b8035906020019184600183028401116401000000008311171561059a57600080fd5b909192939192939080359060200190929190803590602001906401000000008111156105c557600080fd5b8201836020820111156105d757600080fd5b803590602001918460018302840111640100000000831117156105f957600080fd5b90919293919293908035906020019064010000000081111561061a57600080fd5b82018360208201111561062c57600080fd5b8035906020019184600183028401116401000000008311171561064e57600080fd5b90919293919293905050506127aa565b005b34801561066c57600080fd5b50610675612cdc565b604051808215151515815260200191505060405180910390f35b34801561069b57600080fd5b5061079f600480360360808110156106b257600080fd5b81019080803573ffffffffffffffffffffffffffffffffffffffff169060200190929190803590602001906401000000008111156106ef57600080fd5b82018360208201111561070157600080fd5b8035906020019184600183028401116401000000008311171561072357600080fd5b91908080601f016020809104026020016040519081016040528093929190818152602001838380828437600081840152601f19601f82011690508083019250505050505050919291929080359060200190929190803573ffffffffffffffffffffffffffffffffffffffff169060200190929190505050612da2565b604051808215151515815260200191505060405180910390f35b3480156107c557600080fd5b50610867600480360360608110156107dc57600080fd5b81019080803573ffffffffffffffffffffffffffffffffffffffff1690602001909291908035906020019064010000000081111561081957600080fd5b82018360208201111561082b57600080fd5b8035906020019184600183028401116401000000008311171561084d57600080fd5b909192939192939080359060200190929190505050612ebb565b005b610871612cdc565b6108c6576040517f08c379a00000000000000000000000000000000000000000000000000000000081526004018080602001828103825260258152602001806137426025913960400191505060405180910390fd5b600260009054906101000a900473ffffffffffffffffffffffffffffffffffffffff1673ffffffffffffffffffffffffffffffffffffffff16630c11dedd336040518263ffffffff167c0100000000000000000000000000000000000000000000000000000000028152600401808273ffffffffffffffffffffffffffffffffffffffff1673ffffffffffffffffffffffffffffffffffffffff168152602001915050600060405180830381600087803b15801561098357600080fd5b505af1158015610997573d6000803e3d6000fd5b50505050565b6000806109ab8585856130d7565b9050600260009054906101000a900473ffffffffffffffffffffffffffffffffffffffff1673ffffffffffffffffffffffffffffffffffffffff166358ac36a3826040518263ffffffff167c01000000000000000000000000000000000000000000000000000000000281526004018082815260200191505060206040518083038186803b158015610a3c57600080fd5b505afa158015610a50573d6000803e3d6000fd5b505050506040513d6020811015610a6657600080fd5b81019080805190602001909291905050509150509392505050565b610a89612cdc565b610ade576040517f08c379a00000000000000000000000000000000000000000000000000000000081526004018080602001828103825260258152602001806137426025913960400191505060405180910390fd5b610b2d8484848080601f016020809104026020016040519081016040528093929190818152602001838380828437600081840152601f19601f82011690508083019250505050505050836130d7565b600260009054906101000a900473ffffffffffffffffffffffffffffffffffffffff1673ffffffffffffffffffffffffffffffffffffffff166358ac36a3826040518263ffffffff167c01000000000000000000000000000000000000000000000000000000000281526004018082815260200191505060206040518083038186803b158015610bbc57600080fd5b505afa158015610bd0573d6000803e3d6000fd5b505050506040513d6020811015610be657600080fd5b810190808051906020019092919050505015610c6a576040517f08c379a00000000000000000000000000000000000000000000000000000000081526004018080602001828103825260198152602001807f466c69676874206973206e6f742072656769737465726564210000000000000081525060200191505060405180910390fd5b610cb98585858080601f016020809104026020016040519081016040528093929190818152602001838380828437600081840152601f19601f82011690508083019250505050505050846130d7565b600260009054906101000a900473ffffffffffffffffffffffffffffffffffffffff1673ffffffffffffffffffffffffffffffffffffffff166374e514e4826040518263ffffffff167c01000000000000000000000000000000000000000000000000000000000281526004018082815260200191505060206040518083038186803b158015610d4857600080fd5b505afa158015610d5c573d6000803e3d6000fd5b505050506040513d6020811015610d7257600080fd5b810190808051906020019092919050505015610d8d57600080fd5b610ddc8686868080601f016020809104026020016040519081016040528093929190818152602001838380828437600081840152601f19601f82011690508083019250505050505050856130d7565b33600260009054906101000a900473ffffffffffffffffffffffffffffffffffffffff1673ffffffffffffffffffffffffffffffffffffffff1663a4196b3683836040518363ffffffff167c0100000000000000000000000000000000000000000000000000000000028152600401808381526020018273ffffffffffffffffffffffffffffffffffffffff1673ffffffffffffffffffffffffffffffffffffffff1681526020019250505060206040518083038186803b158015610ea057600080fd5b505afa158015610eb4573d6000803e3d6000fd5b505050506040513d6020811015610eca57600080fd5b810190808051906020019092919050505015610f31576040517f08c379a00000000000000000000000000000000000000000000000000000000081526004018080602001828103825260278152602001806137676027913960400191505060405180910390fd5b670de0b6b3a764000080341015610fb0576040517f08c379a00000000000000000000000000000000000000000000000000000000081526004018080602001828103825260128152602001807f496e73756666696369656e742076616c7565000000000000000000000000000081525060200191505060405180910390fd5b670de0b6b3a76400006000349050600260009054906101000a900473ffffffffffffffffffffffffffffffffffffffff1673ffffffffffffffffffffffffffffffffffffffff166108fc670de0b6b3a76400009081150290604051600060405180830381858888f1935050505015801561102e573d6000803e3d6000fd5b50600260009054906101000a900473ffffffffffffffffffffffffffffffffffffffff1673ffffffffffffffffffffffffffffffffffffffff16634b8260746110bc8d8d8d8080601f016020809104026020016040519081016040528093929190818152602001838380828437600081840152601f19601f820116905080830192505050505050508c6130d7565b338460966040518563ffffffff167c0100000000000000000000000000000000000000000000000000000000028152600401808581526020018473ffffffffffffffffffffffffffffffffffffffff1673ffffffffffffffffffffffffffffffffffffffff168152602001838152602001828152602001945050505050600060405180830381600087803b15801561115357600080fd5b505af1158015611167573d6000803e3d6000fd5b5050505050600081340390503373ffffffffffffffffffffffffffffffffffffffff166108fc829081150290604051600060405180830381858888f193505050501580156111b9573d6000803e3d6000fd5b505050505050505050505050565b678ac7230489e8000081565b670de0b6b3a7640000341015611251576040517f08c379a000000000000000000000000000000000000000000000000000000000815260040180806020018281038252601c8152602001807f526567697374726174696f6e206665652069732072657175697265640000000081525060200191505060405180910390fd5b61125961351b565b6112623361319f565b9050604051806040016040528060011515815260200182815250600360003373ffffffffffffffffffffffffffffffffffffffff1673ffffffffffffffffffffffffffffffffffffffff16815260200190815260200160002060008201518160000160006101000a81548160ff0219169083151502179055506020820151816001019060036112f292919061353d565b5090505050565b670de0b6b3a764000081565b61130d61351b565b600360003373ffffffffffffffffffffffffffffffffffffffff1673ffffffffffffffffffffffffffffffffffffffff16815260200190815260200160002060000160009054906101000a900460ff166113cf576040517f08c379a000000000000000000000000000000000000000000000000000000000815260040180806020018281038252601b8152602001807f4e6f74207265676973746572656420617320616e206f7261636c65000000000081525060200191505060405180910390fd5b600360003373ffffffffffffffffffffffffffffffffffffffff1673ffffffffffffffffffffffffffffffffffffffff16815260200190815260200160002060010160038060200260405190810160405280929190826003801561146e576020028201916000905b82829054906101000a900460ff1660ff16815260200190600101906020826000010492830192600103820291508084116114375790505b5050505050905090565b670de0b6b3a764000081565b61148c612cdc565b6114e1576040517f08c379a00000000000000000000000000000000000000000000000000000000081526004018080602001828103825260258152602001806137426025913960400191505060405180910390fd5b33600260009054906101000a900473ffffffffffffffffffffffffffffffffffffffff1673ffffffffffffffffffffffffffffffffffffffff1663010c5c97826040518263ffffffff167c0100000000000000000000000000000000000000000000000000000000028152600401808273ffffffffffffffffffffffffffffffffffffffff1673ffffffffffffffffffffffffffffffffffffffff16815260200191505060206040518083038186803b15801561159d57600080fd5b505afa1580156115b1573d6000803e3d6000fd5b505050506040513d60208110156115c757600080fd5b810190808051906020019092919050505061164a576040517f08c379a00000000000000000000000000000000000000000000000000000000081526004018080602001828103825260208152602001807f53656e646572206973206e6f742072656769737465726564206169726c696e6581525060200191505060405180910390fd5b678ac7230489e80000803410156116c9576040517f08c379a00000000000000000000000000000000000000000000000000000000081526004018080602001828103825260128152602001807f496e73756666696369656e742076616c7565000000000000000000000000000081525060200191505060405180910390fd5b678ac7230489e80000600260009054906101000a900473ffffffffffffffffffffffffffffffffffffffff1673ffffffffffffffffffffffffffffffffffffffff166108fc349081150290604051600060405180830381858888f1935050505015801561173a573d6000803e3d6000fd5b50600260009054906101000a900473ffffffffffffffffffffffffffffffffffffffff1673ffffffffffffffffffffffffffffffffffffffff16636fbb8798336040518263ffffffff167c0100000000000000000000000000000000000000000000000000000000028152600401808273ffffffffffffffffffffffffffffffffffffffff1673ffffffffffffffffffffffffffffffffffffffff168152602001915050600060405180830381600087803b1580156117f857600080fd5b505af115801561180c573d6000803e3d6000fd5b50505050600081340390503373ffffffffffffffffffffffffffffffffffffffff166108fc829081150290604051600060405180830381858888f1935050505015801561185d573d6000803e3d6000fd5b5050505050565b60008061186f612cdc565b6118c4576040517f08c379a00000000000000000000000000000000000000000000000000000000081526004018080602001828103825260258152602001806137426025913960400191505060405180910390fd5b33600260009054906101000a900473ffffffffffffffffffffffffffffffffffffffff1673ffffffffffffffffffffffffffffffffffffffff1663f53b6d65826040518263ffffffff167c0100000000000000000000000000000000000000000000000000000000028152600401808273ffffffffffffffffffffffffffffffffffffffff1673ffffffffffffffffffffffffffffffffffffffff16815260200191505060206040518083038186803b15801561198057600080fd5b505afa158015611994573d6000803e3d6000fd5b505050506040513d60208110156119aa57600080fd5b8101908080519060200190929190505050611a2d576040517f08c379a00000000000000000000000000000000000000000000000000000000081526004018080602001828103825260168152602001807f4169726c696e65206973206e6f742066756e646564210000000000000000000081525060200191505060405180910390fd5b83600260009054906101000a900473ffffffffffffffffffffffffffffffffffffffff1673ffffffffffffffffffffffffffffffffffffffff1663010c5c97826040518263ffffffff167c0100000000000000000000000000000000000000000000000000000000028152600401808273ffffffffffffffffffffffffffffffffffffffff1673ffffffffffffffffffffffffffffffffffffffff16815260200191505060206040518083038186803b158015611ae957600080fd5b505afa158015611afd573d6000803e3d6000fd5b505050506040513d6020811015611b1357600080fd5b810190808051906020019092919050505015611b97576040517f08c379a000000000000000000000000000000000000000000000000000000000815260040180806020018281038252601f8152602001807f4169726c696e652068617320616c72656164792072656769737465726564210081525060200191505060405180910390fd5b6004611ba16126e4565b1015611d8457600260009054906101000a900473ffffffffffffffffffffffffffffffffffffffff1673ffffffffffffffffffffffffffffffffffffffff1663c7ba501886336040518363ffffffff167c0100000000000000000000000000000000000000000000000000000000028152600401808373ffffffffffffffffffffffffffffffffffffffff1673ffffffffffffffffffffffffffffffffffffffff1681526020018273ffffffffffffffffffffffffffffffffffffffff1673ffffffffffffffffffffffffffffffffffffffff16815260200192505050600060405180830381600087803b158015611c9857600080fd5b505af1158015611cac573d6000803e3d6000fd5b5050505060405180602001604052803373ffffffffffffffffffffffffffffffffffffffff1673ffffffffffffffffffffffffffffffffffffffff168152506000808773ffffffffffffffffffffffffffffffffffffffff1673ffffffffffffffffffffffffffffffffffffffff168152602001908152602001600020906001611d379291906135d7565b50836000808773ffffffffffffffffffffffffffffffffffffffff1673ffffffffffffffffffffffffffffffffffffffff1681526020019081526020016000208054905093509350612191565b600080905060008090505b6000808873ffffffffffffffffffffffffffffffffffffffff1673ffffffffffffffffffffffffffffffffffffffff16815260200190815260200160002080549050811015611e95573373ffffffffffffffffffffffffffffffffffffffff166000808973ffffffffffffffffffffffffffffffffffffffff1673ffffffffffffffffffffffffffffffffffffffff1681526020019081526020016000208281548110611e3857fe5b9060005260206000200160009054906101000a900473ffffffffffffffffffffffffffffffffffffffff1673ffffffffffffffffffffffffffffffffffffffff161415611e885760019150611e95565b8080600101915050611d8f565b508015611eed576040517f08c379a000000000000000000000000000000000000000000000000000000000815260040180806020018281038252603e815260200180613704603e913960400191505060405180910390fd5b6000808773ffffffffffffffffffffffffffffffffffffffff1673ffffffffffffffffffffffffffffffffffffffff1681526020019081526020016000203390806001815401808255809150509060018203906000526020600020016000909192909190916101000a81548173ffffffffffffffffffffffffffffffffffffffff021916908373ffffffffffffffffffffffffffffffffffffffff16021790555050611faa6002611f9c6126e4565b61332b90919063ffffffff16565b6000808873ffffffffffffffffffffffffffffffffffffffff1673ffffffffffffffffffffffffffffffffffffffff168152602001908152602001600020805490501061214757600260009054906101000a900473ffffffffffffffffffffffffffffffffffffffff1673ffffffffffffffffffffffffffffffffffffffff1663c7ba501887336040518363ffffffff167c0100000000000000000000000000000000000000000000000000000000028152600401808373ffffffffffffffffffffffffffffffffffffffff1673ffffffffffffffffffffffffffffffffffffffff1681526020018273ffffffffffffffffffffffffffffffffffffffff1673ffffffffffffffffffffffffffffffffffffffff16815260200192505050600060405180830381600087803b1580156120e257600080fd5b505af11580156120f6573d6000803e3d6000fd5b50505050846000808873ffffffffffffffffffffffffffffffffffffffff1673ffffffffffffffffffffffffffffffffffffffff168152602001908152602001600020805490509450945050612191565b60008060008873ffffffffffffffffffffffffffffffffffffffff1673ffffffffffffffffffffffffffffffffffffffff1681526020019081526020016000208054905094509450505b5050915091565b8560ff16600360003373ffffffffffffffffffffffffffffffffffffffff1673ffffffffffffffffffffffffffffffffffffffff1681526020019081526020016000206001016000600381106121ea57fe5b602091828204019190069054906101000a900460ff1660ff16148061227757508560ff16600360003373ffffffffffffffffffffffffffffffffffffffff1673ffffffffffffffffffffffffffffffffffffffff16815260200190815260200160002060010160016003811061225c57fe5b602091828204019190069054906101000a900460ff1660ff16145b806122ea57508560ff16600360003373ffffffffffffffffffffffffffffffffffffffff1673ffffffffffffffffffffffffffffffffffffffff1681526020019081526020016000206001016002600381106122cf57fe5b602091828204019190069054906101000a900460ff1660ff16145b61233f576040517f08c379a000000000000000000000000000000000000000000000000000000000815260040180806020018281038252602381526020018061378e6023913960400191505060405180910390fd5b60008686868686604051602001808660ff1660ff167f01000000000000000000000000000000000000000000000000000000000000000281526001018573ffffffffffffffffffffffffffffffffffffffff1673ffffffffffffffffffffffffffffffffffffffff166c0100000000000000000000000002815260140184848082843780830192505050828152602001955050505050506040516020818303038152906040528051906020012090506004600082815260200190815260200160002060000160149054906101000a900460ff16612467576040517f08c379a000000000000000000000000000000000000000000000000000000000815260040180806020018281038252602f8152602001806136d5602f913960400191505060405180910390fd5b6004600082815260200190815260200160002060010160008360ff1660ff1681526020019081526020016000203390806001815401808255809150509060018203906000526020600020016000909192909190916101000a81548173ffffffffffffffffffffffffffffffffffffffff021916908373ffffffffffffffffffffffffffffffffffffffff160217905550507f43c853095c2752648493c88b4baac4d580d2594ffb00c6f1d4242d844514f7838686868686604051808673ffffffffffffffffffffffffffffffffffffffff1673ffffffffffffffffffffffffffffffffffffffff168152602001806020018481526020018360ff1660ff1681526020018281038252868682818152602001925080828437600081840152601f19601f820116905080830192505050965050505050505060405180910390a160036004600083815260200190815260200160002060010160008460ff1660ff16815260200190815260200160002080549050106126db577fe23f5229de535c091e3b7bec2665f5d698192d3b31393066e8987b7a05076b6c8686868686604051808673ffffffffffffffffffffffffffffffffffffffff1673ffffffffffffffffffffffffffffffffffffffff168152602001806020018481526020018360ff1660ff1681526020018281038252868682818152602001925080828437600081840152601f19601f820116905080830192505050965050505050505060405180910390a16126da8686868080601f016020809104026020016040519081016040528093929190818152602001838380828437600081840152601f19601f820116905080830192505050505050508585613351565b5b50505050505050565b6000600260009054906101000a900473ffffffffffffffffffffffffffffffffffffffff1673ffffffffffffffffffffffffffffffffffffffff1663c23bcf096040518163ffffffff167c010000000000000000000000000000000000000000000000000000000002815260040160206040518083038186803b15801561276a57600080fd5b505afa15801561277e573d6000803e3d6000fd5b505050506040513d602081101561279457600080fd5b8101908080519060200190929190505050905090565b6127b2612cdc565b612807576040517f08c379a00000000000000000000000000000000000000000000000000000000081526004018080602001828103825260258152602001806137426025913960400191505060405180910390fd5b33600260009054906101000a900473ffffffffffffffffffffffffffffffffffffffff1673ffffffffffffffffffffffffffffffffffffffff1663f53b6d65826040518263ffffffff167c0100000000000000000000000000000000000000000000000000000000028152600401808273ffffffffffffffffffffffffffffffffffffffff1673ffffffffffffffffffffffffffffffffffffffff16815260200191505060206040518083038186803b1580156128c357600080fd5b505afa1580156128d7573d6000803e3d6000fd5b505050506040513d60208110156128ed57600080fd5b8101908080519060200190929190505050612970576040517f08c379a00000000000000000000000000000000000000000000000000000000081526004018080602001828103825260168152602001807f4169726c696e65206973206e6f742066756e646564210000000000000000000081525060200191505060405180910390fd5b6129bf3389898080601f016020809104026020016040519081016040528093929190818152602001838380828437600081840152601f19601f82011690508083019250505050505050886130d7565b600260009054906101000a900473ffffffffffffffffffffffffffffffffffffffff1673ffffffffffffffffffffffffffffffffffffffff166358ac36a3826040518263ffffffff167c01000000000000000000000000000000000000000000000000000000000281526004018082815260200191505060206040518083038186803b158015612a4e57600080fd5b505afa158015612a62573d6000803e3d6000fd5b505050506040513d6020811015612a7857600080fd5b810190808051906020019092919050505015612afc576040517f08c379a000000000000000000000000000000000000000000000000000000000815260040180806020018281038252601d8152602001807f466c6967687420697320616c726561647920726567697374657265642100000081525060200191505060405180910390fd5b6000612b4d338b8b8080601f016020809104026020016040519081016040528093929190818152602001838380828437600081840152601f19601f820116905080830192505050505050508a6130d7565b9050600260009054906101000a900473ffffffffffffffffffffffffffffffffffffffff1673ffffffffffffffffffffffffffffffffffffffff1663fb5cf1e982338d8d8d8d8d8d8d6040518a63ffffffff167c0100000000000000000000000000000000000000000000000000000000028152600401808a81526020018973ffffffffffffffffffffffffffffffffffffffff1673ffffffffffffffffffffffffffffffffffffffff16815260200180602001878152602001806020018060200184810384528b8b82818152602001925080828437600081840152601f19601f8201169050808301925050508481038352888882818152602001925080828437600081840152601f19601f8201169050808301925050508481038252868682818152602001925080828437600081840152601f19601f8201169050808301925050509c50505050505050505050505050600060405180830381600087803b158015612cb857600080fd5b505af1158015612ccc573d6000803e3d6000fd5b5050505050505050505050505050565b6000600260009054906101000a900473ffffffffffffffffffffffffffffffffffffffff1673ffffffffffffffffffffffffffffffffffffffff1663cd905dff6040518163ffffffff167c010000000000000000000000000000000000000000000000000000000002815260040160206040518083038186803b158015612d6257600080fd5b505afa158015612d76573d6000803e3d6000fd5b505050506040513d6020811015612d8c57600080fd5b8101908080519060200190929190505050905090565b600080612db08686866130d7565b9050600260009054906101000a900473ffffffffffffffffffffffffffffffffffffffff1673ffffffffffffffffffffffffffffffffffffffff1663a4196b3682856040518363ffffffff167c0100000000000000000000000000000000000000000000000000000000028152600401808381526020018273ffffffffffffffffffffffffffffffffffffffff1673ffffffffffffffffffffffffffffffffffffffff1681526020019250505060206040518083038186803b158015612e7557600080fd5b505afa158015612e89573d6000803e3d6000fd5b505050506040513d6020811015612e9f57600080fd5b8101908080519060200190929190505050915050949350505050565b6000612ec63361341e565b905060008186868686604051602001808660ff1660ff167f01000000000000000000000000000000000000000000000000000000000000000281526001018573ffffffffffffffffffffffffffffffffffffffff1673ffffffffffffffffffffffffffffffffffffffff166c01000000000000000000000000028152601401848480828437808301925050508281526020019550505050505060405160208183030381529060405280519060200120905060405180604001604052803373ffffffffffffffffffffffffffffffffffffffff168152602001600115158152506004600083815260200190815260200160002060008201518160000160006101000a81548173ffffffffffffffffffffffffffffffffffffffff021916908373ffffffffffffffffffffffffffffffffffffffff16021790555060208201518160000160146101000a81548160ff0219169083151502179055509050507f3ed01f2c3fc24c6b329d931e35b03e390d23497d22b3f90e15b600343e93df118287878787604051808660ff1660ff1681526020018573ffffffffffffffffffffffffffffffffffffffff1673ffffffffffffffffffffffffffffffffffffffff168152602001806020018381526020018281038252858582818152602001925080828437600081840152601f19601f820116905080830192505050965050505050505060405180910390a1505050505050565b6000838383604051602001808473ffffffffffffffffffffffffffffffffffffffff1673ffffffffffffffffffffffffffffffffffffffff166c0100000000000000000000000002815260140183805190602001908083835b602083106131535780518252602082019150602081019050602083039250613130565b6001836020036101000a03801982511681845116808217855250505050505090500182815260200193505050506040516020818303038152906040528051906020012090509392505050565b6131a761351b565b6131af61351b565b6131b88361341e565b816000600381106131c557fe5b602002019060ff16908160ff1681525050806000600381106131e357fe5b6020020151816001600381106131f557fe5b602002019060ff16908160ff16815250505b8060006003811061321457fe5b602002015160ff168160016003811061322957fe5b602002015160ff161415613263576132408361341e565b8160016003811061324d57fe5b602002019060ff16908160ff1681525050613207565b8060016003811061327057fe5b60200201518160026003811061328257fe5b602002019060ff16908160ff16815250505b806000600381106132a157fe5b602002015160ff16816002600381106132b657fe5b602002015160ff1614806132f15750806001600381106132d257fe5b602002015160ff16816002600381106132e757fe5b602002015160ff16145b15613322576132ff8361341e565b8160026003811061330c57fe5b602002019060ff16908160ff1681525050613294565b80915050919050565b600080821161333957600080fd5b600082848161334457fe5b0490508091505092915050565b600061335e8585856130d7565b9050600260009054906101000a900473ffffffffffffffffffffffffffffffffffffffff1673ffffffffffffffffffffffffffffffffffffffff16633f2aecea82846040518363ffffffff167c0100000000000000000000000000000000000000000000000000000000028152600401808381526020018260ff1660ff16815260200192505050600060405180830381600087803b1580156133ff57600080fd5b505af1158015613413573d6000803e3d6000fd5b505050505050505050565b600080600a905060008160ff166002601481819054906101000a900460ff168092919060010191906101000a81548160ff021916908360ff16021790555060ff1643034085604051602001808381526020018273ffffffffffffffffffffffffffffffffffffffff1673ffffffffffffffffffffffffffffffffffffffff166c01000000000000000000000000028152601401925050506040516020818303038152906040528051906020012060019004816134d657fe5b06905060fa600260149054906101000a900460ff1660ff161115613511576000600260146101000a81548160ff021916908360ff1602179055505b8092505050919050565b6040518060600160405280600390602082028038833980820191505090505090565b826003601f016020900481019282156135c65791602002820160005b8382111561359757835183826101000a81548160ff021916908360ff1602179055509260200192600101602081600001049283019260010302613559565b80156135c45782816101000a81549060ff0219169055600101602081600001049283019260010302613597565b505b5090506135d39190613661565b5090565b828054828255906000526020600020908101928215613650579160200282015b8281111561364f5782518260006101000a81548173ffffffffffffffffffffffffffffffffffffffff021916908373ffffffffffffffffffffffffffffffffffffffff160217905550916020019190600101906135f7565b5b50905061365d9190613691565b5090565b61368e91905b8082111561368a57600081816101000a81549060ff021916905550600101613667565b5090565b90565b6136d191905b808211156136cd57600081816101000a81549073ffffffffffffffffffffffffffffffffffffffff021916905550600101613697565b5090565b9056fe466c69676874206f722074696d657374616d7020646f206e6f74206d61746368206f7261636c652072657175657374566f74696e67206169726c696e652068617320616c7265616479207375626d697474656420766f746520666f722074686973206e6577206169726c696e65436f6e74726163742069732063757272656e746c79206e6f74206f7065726174696f6e616c50617373656e67657220697320616c726561647920696e737572656420666f7220666c69676874496e64657820646f6573206e6f74206d61746368206f7261636c652072657175657374a165627a7a72305820b60fa71f5183e73b689acbae80315a6adb65ac757acee166a7ad2273f56b41ab0029",
  "source": "pragma solidity ^0.5.6;\n\n// It's important to avoid vulnerabilities due to numeric overflow bugs\n// OpenZeppelin's SafeMath library, when used correctly, protects agains such bugs\n// More info: https://www.nccgroup.trust/us/about-us/newsroom-and-events/blog/2018/november/smart-contract-insecurity-bad-arithmetic/\n\nimport \"../node_modules/openzeppelin-solidity/contracts/math/SafeMath.sol\";\n\n/************************************************** */\n/* FlightSurety Smart Contract                      */\n/************************************************** */\ncontract FlightSuretyApp {\n    \n    using SafeMath for uint256; // Allow SafeMath functions to be called for all uint256 types (similar to \"prototype\" in Javascript)\n\n    /********************************************************************************************/\n    /*                                       DATA VARIABLES                                     */\n    /********************************************************************************************/\n\n    // Flight status codees\n    uint8 private constant STATUS_CODE_UNKNOWN = 0;\n    uint8 private constant STATUS_CODE_ON_TIME = 10;\n    uint8 private constant STATUS_CODE_LATE_AIRLINE = 20;\n    uint8 private constant STATUS_CODE_LATE_WEATHER = 30;\n    uint8 private constant STATUS_CODE_LATE_TECHNICAL = 40;\n    uint8 private constant STATUS_CODE_LATE_OTHER = 50;\n\n    uint256 public constant INSURANCE_COST = 1 ether;\n    uint256 private constant INSURANCE_MULTIPLIER = 150;\n    uint256 public constant AIRLINE_FUNDING_VALUE = 10 ether;\n    uint256 private constant MULTIPARTY_MINMUM_AIRLINES = 4;\n    uint256 private constant MULTIPARTY_CONSENSUS_DIVIDER = 2;\n\n    mapping(address => address[]) private airlineMultiCallers;\n\n\n    address private contractOwner;          // Account used to deploy contract\n    FlightSuretyData flightSuretyData;     // Contract Data \n\n    \n\n \n    /********************************************************************************************/\n    /*                                       FUNCTION MODIFIERS                                 */\n    /********************************************************************************************/\n\n    // Modifiers help avoid duplication of code. They are typically used to validate something\n    // before a function is allowed to be executed.\n\n    /**\n    * @dev Modifier that requires the \"operational\" boolean variable to be \"true\"\n    *      This is used on all state changing functions to pause the contract in \n    *      the event there is an issue that needs to be fixed\n    */\n    modifier requireIsOperational() {\n         // Modify to call data contract's status\n        require(isOperational(), \"Contract is currently not operational\");  \n        _;  // All modifiers require an \"_\" which indicates where the function body will be added\n    }\n\n    modifier requireRegisteredAirline(address airline) {\n        require(flightSuretyData.isAirlineRegistered(airline), \"Sender is not registered airline\");\n        _;\n    }\n\n    /**\n    * @dev Modifier that requires the \"ContractOwner\" account to be the function caller\n    */\n    modifier requireContractOwner() {\n        require(msg.sender == contractOwner, \"Caller is not contract owner\");\n        _;\n    }\n\n    modifier paidEnough(uint256 value) {\n        require(msg.value >= value, \"Insufficient value\");\n        _;\n    }\n\n    modifier checkValue(uint256 amount) {\n        _;\n        uint amountToReturn = msg.value - amount;\n        msg.sender.transfer(amountToReturn);\n    }\n\n    modifier airlineIsFunded(address airline) {\n        require(flightSuretyData.isAirlineFunded(airline), \"Airline is not funded!\");\n        _;\n    }\n\n    modifier airlineIsNotRegistered(address airline) {\n        require(!flightSuretyData.isAirlineRegistered(airline), \"Airline has already registered!\");\n        _;\n    }\n\n    modifier passengerIsNotInsured(bytes32 flightKey, address passenger) {\n        require(!flightSuretyData.isPassengerInsured(flightKey, passenger), \"Passenger is already insured for flight\");\n        _;\n    }\n\n    modifier flightIsNotRegistered(bytes32 flightKey) {\n        require(!flightSuretyData.isFlightRegistered(flightKey), \"Flight is already registered!\");\n        _;\n    }\n\n    modifier flightIsRegistered(bytes32 flightKey) {\n        require(!flightSuretyData.isFlightRegistered(flightKey), \"Flight is not registered!\");\n        _;\n    }\n\n    modifier flightIsNotLanded(bytes32 flightKey) {\n        require(!flightSuretyData.isFlightLanded(flightKey));\n        _;\n    }\n\n    /********************************************************************************************/\n    /*                                       CONSTRUCTOR                                        */\n    /********************************************************************************************/\n\n    /**\n    * @dev Contract constructor\n    *\n    */\n    constructor(address contractAddress) public {\n        contractOwner = msg.sender;\n        flightSuretyData = FlightSuretyData(contractAddress);\n    }\n\n    /********************************************************************************************/\n    /*                                       UTILITY FUNCTIONS                                  */\n    /********************************************************************************************/\n\n    function isOperational() public view returns (bool) {\n        return flightSuretyData.isOperational();  // Modify to call data contract's status\n    }\n\n    function isFlightRegistered(address airline, string memory flight, uint256 timestamp) public view returns (bool) {\n        bytes32 flightKey = getFlightKey(airline, flight, timestamp);\n        return flightSuretyData.isFlightRegistered(flightKey);\n    }\n\n    function isPassengerInsuredForFlight(address airline, string memory flight, uint256 timestamp, address passenger) public view returns (bool) {\n        bytes32 flightKey  = getFlightKey(airline, flight, timestamp);\n        return flightSuretyData.isPassengerInsured(flightKey, passenger);\n    }\n\n    /********************************************************************************************/\n    /*                                     SMART CONTRACT FUNCTIONS                             */\n    /********************************************************************************************/\n\n  \n   /**\n    * @dev Add an airline to the registration queue\n    *\n    */ \n\n    function fundAirline() external payable requireIsOperational requireRegisteredAirline(msg.sender) paidEnough(AIRLINE_FUNDING_VALUE) checkValue(AIRLINE_FUNDING_VALUE) {\n        address(uint160(address(flightSuretyData))).transfer(msg.value);\n        flightSuretyData.fundAirline(msg.sender);\n    } \n\n    function getRegisteredAirlines() public view returns (uint256) {\n        return flightSuretyData.getRegisteredAirlines();\n    }\n\n    function registerAirline(address airline) external requireIsOperational() airlineIsFunded(msg.sender) airlineIsNotRegistered(airline) returns (bool success, uint256 votes) {\n        if (getRegisteredAirlines() < MULTIPARTY_MINMUM_AIRLINES) {\n            flightSuretyData.registerAirline(airline, msg.sender);\n            airlineMultiCallers[airline] = [msg.sender];\n            return (success, airlineMultiCallers[airline].length);\n        } else {\n            bool isDuplicate = false;\n            for (uint c = 0; c < airlineMultiCallers[airline].length; c ++) {\n                if (airlineMultiCallers[airline][c] == msg.sender) {\n                    isDuplicate = true;\n                    break;\n                }\n            }\n            require(!isDuplicate, \"Voting airline has already submitted vote for this new airline\");\n\n            airlineMultiCallers[airline].push(msg.sender);\n            if (airlineMultiCallers[airline].length >= getRegisteredAirlines().div(MULTIPARTY_CONSENSUS_DIVIDER)) {\n                flightSuretyData.registerAirline(airline, msg.sender);\n                return (success, airlineMultiCallers[airline].length);\n            }\n\n            return (false, airlineMultiCallers[airline].length);\n        }\n    }\n\n    function registerFlight(string calldata flight, uint256 timestamp, string calldata departure, string calldata destination) external \n    requireIsOperational airlineIsFunded(msg.sender) \n    flightIsNotRegistered(getFlightKey(msg.sender, flight, timestamp)) {\n        bytes32 flightKey = getFlightKey(msg.sender, flight, timestamp);\n        flightSuretyData.registerFlight(flightKey, msg.sender, flight, timestamp, departure, destination);\n    }\n\n    function buyInsurance(address airline, string calldata flight, uint256 timestamp) external payable requireIsOperational() \n    flightIsRegistered(getFlightKey(airline, flight, timestamp)) \n    flightIsNotLanded(getFlightKey(airline, flight, timestamp)) \n    passengerIsNotInsured(getFlightKey(airline, flight, timestamp), msg.sender)\n    paidEnough(INSURANCE_COST)\n    checkValue(INSURANCE_COST) {\n        uint256 amount = msg.value;\n        address(uint160(address(flightSuretyData))).transfer(INSURANCE_COST);\n        flightSuretyData.buy(getFlightKey(airline, flight, timestamp), msg.sender, amount, INSURANCE_MULTIPLIER);\n    }\n\n    function processFlightStatus(address airline, string memory flight, uint256 timestamp, uint8 statusCode) internal {\n        bytes32 flightKey = getFlightKey(airline, flight, timestamp);\n        flightSuretyData.updateFlightStatus(flightKey, statusCode);\n    }\n\n    function pay() public requireIsOperational {\n        flightSuretyData.pay(address(uint160(address(msg.sender))));\n    }\n\n    function fetchFlightStatus(address airline, string calldata flight, uint256 timestamp) external {\n        uint8 index = getRandomIndex(msg.sender);\n\n        bytes32 key = keccak256(abi.encodePacked(index, airline, flight, timestamp));\n        oracleResponses[key] = ResponseInfo ({\n            requester: msg.sender,\n            isOpen: true\n        });\n\n        emit OracleRequest(index, airline, flight, timestamp);\n    }\n\n\n// region ORACLE MANAGEMENT\n\n    // Incremented to add pseudo-randomness at various points\n    uint8 private nonce = 0;    \n\n    // Fee to be paid when registering oracle\n    uint256 public constant REGISTRATION_FEE = 1 ether;\n\n    // Number of oracles that must respond for valid status\n    uint256 private constant MIN_RESPONSES = 3;\n\n\n    struct Oracle {\n        bool isRegistered;\n        uint8[3] indexes;        \n    }\n\n    // Track all registered oracles\n    mapping(address => Oracle) private oracles;\n\n    // Model for responses from oracles\n    struct ResponseInfo {\n        address requester;                              // Account that requested status\n        bool isOpen;                                    // If open, oracle responses are accepted\n        mapping(uint8 => address[]) responses;          // Mapping key is the status code reported                                                     // This lets us group responses and identify                                                     // the response that majority of the oracles\n    }\n\n    // Track all oracle responses\n    // Key = hash(index, flight, timestamp)\n    mapping(bytes32 => ResponseInfo) private oracleResponses;\n\n    // Event fired each time an oracle submits a response\n    event FlightStatusInfo(address airline, string flight, uint256 timestamp, uint8 status);\n\n    event OracleReport(address airline, string flight, uint256 timestamp, uint8 status);\n\n    // Event fired when flight status request is submitted\n    // Oracles track this and if they have a matching index\n    // they fetch data and submit a response\n    event OracleRequest(uint8 index, address airline, string flight, uint256 timestamp);\n\n\n    // Register an oracle with the contract\n    function registerOracle() external payable {\n        // Require registration fee\n        require(msg.value >= REGISTRATION_FEE, \"Registration fee is required\");\n\n        uint8[3] memory indexes = generateIndexes(msg.sender);\n\n        oracles[msg.sender] = Oracle({ isRegistered: true, indexes: indexes });\n    }\n\n    function getMyIndexes() view external returns(uint8[3] memory) {\n        require(oracles[msg.sender].isRegistered, \"Not registered as an oracle\");\n\n        return oracles[msg.sender].indexes;\n    }\n\n\n\n\n    // Called by oracle when a response is available to an outstanding request\n    // For the response to be accepted, there must be a pending request that is open\n    // and matches one of the three Indexes randomly assigned to the oracle at the\n    // time of registration (i.e. uninvited oracles are not welcome)\n    function submitOracleResponse(uint8 index, address airline, string calldata flight, uint256 timestamp, uint8 statusCode) external {\n        require((oracles[msg.sender].indexes[0] == index) || (oracles[msg.sender].indexes[1] == index) || (oracles[msg.sender].indexes[2] == index), \"Index does not match oracle request\");\n\n\n        bytes32 key = keccak256(abi.encodePacked(index, airline, flight, timestamp)); \n        require(oracleResponses[key].isOpen, \"Flight or timestamp do not match oracle request\");\n\n        oracleResponses[key].responses[statusCode].push(msg.sender);\n\n        // Information isn't considered verified until at least MIN_RESPONSES\n        // oracles respond with the *** same *** information\n        emit OracleReport(airline, flight, timestamp, statusCode);\n        if (oracleResponses[key].responses[statusCode].length >= MIN_RESPONSES) {\n\n            emit FlightStatusInfo(airline, flight, timestamp, statusCode);\n\n            // Handle flight status as appropriate\n            processFlightStatus(airline, flight, timestamp, statusCode);\n        }\n    }\n\n\n    function getFlightKey(address airline, string memory flight, uint256 timestamp) pure internal returns(bytes32) {\n        return keccak256(abi.encodePacked(airline, flight, timestamp));\n    }\n\n    // Returns array of three non-duplicating integers from 0-9\n    function generateIndexes(address account) internal returns(uint8[3] memory) {\n        uint8[3] memory indexes;\n        indexes[0] = getRandomIndex(account);\n        \n        indexes[1] = indexes[0];\n        while(indexes[1] == indexes[0]) {\n            indexes[1] = getRandomIndex(account);\n        }\n\n        indexes[2] = indexes[1];\n        while((indexes[2] == indexes[0]) || (indexes[2] == indexes[1])) {\n            indexes[2] = getRandomIndex(account);\n        }\n\n        return indexes;\n    }\n\n    // Returns array of three non-duplicating integers from 0-9\n    function getRandomIndex(address account) internal returns (uint8) {\n        uint8 maxValue = 10;\n\n        // Pseudo random number...the incrementing nonce adds variation\n        uint8 random = uint8(uint256(keccak256(abi.encodePacked(blockhash(block.number - nonce++), account))) % maxValue);\n\n        if (nonce > 250) {\n            nonce = 0;  // Can only fetch blockhashes for last 256 blocks so we adapt\n        }\n\n        return random;\n    }\n} \n\ncontract FlightSuretyData {\n    function isOperational() public view returns(bool);\n    function isAirlineFunded(address airline) external view returns (bool);\n    function isAirlineRegistered(address airline) external view returns (bool);\n    function registerAirline(address newAirline, address registeredAirline) external;\n    function fundAirline(address airline) payable external;\n    function getRegisteredAirlines() public view returns (uint256);\n    function isPassengerInsured(bytes32 flightKey, address passenger) external view returns (bool);\n    function registerFlight(bytes32 flightKey, address airline, string calldata flight, uint256 timestamp, string calldata departure, string calldata destination) external;\n    function isFlightRegistered(bytes32 flightKey) public view returns (bool);\n    function isFlightLanded(bytes32 flightKey) public view returns (bool);\n    function buy(bytes32 flightKey, address passenger, uint256 amount, uint256 multiplier) external payable;\n    function updateFlightStatus(bytes32 flightKey, uint8 statusCode) external;\n    function pay(address caller) external;\n}\n",
  "sourcePath": "C:/Blockchain/FlightSurety/contracts/FlightSuretyApp.sol",
  "compiler": {
    "name": "solc",
    "version": "0.5.7+commit.6da8b019.Emscripten.clang"
  },
  "schemaVersion": "3.0.6",
  "updatedAt": "2019-05-04T09:22:47.074Z",
  "devdoc": {
    "methods": {
      "constructor": {
        "details": "Contract constructor    "
      },
      "fundAirline()": {
        "details": "Add an airline to the registration queue    "
      }
    }
  },
  "userdoc": {
    "methods": {
      "isOperational()": {
        "notice": "*****************************************************************************************"
      }
    },
    "notice": "************************************************ "
  }
}