{
  "contractName": "FlightSuretyData",
  "abi": [
    {
      "constant": true,
      "inputs": [
        {
          "name": "",
          "type": "bytes32"
        }
      ],
      "name": "flights",
      "outputs": [
        {
          "name": "isRegistered",
          "type": "bool"
        },
        {
          "name": "airline",
          "type": "address"
        },
        {
          "name": "flight",
          "type": "string"
        },
        {
          "name": "departure",
          "type": "string"
        },
        {
          "name": "destination",
          "type": "string"
        },
        {
          "name": "timestamp",
          "type": "uint256"
        },
        {
          "name": "statusCode",
          "type": "uint8"
        }
      ],
      "payable": false,
      "stateMutability": "view",
      "type": "function",
      "signature": "0x20c5375e"
    },
    {
      "constant": true,
      "inputs": [
        {
          "name": "",
          "type": "address"
        }
      ],
      "name": "airlines",
      "outputs": [
        {
          "name": "isRegistered",
          "type": "bool"
        },
        {
          "name": "isFunded",
          "type": "bool"
        }
      ],
      "payable": false,
      "stateMutability": "view",
      "type": "function",
      "signature": "0x41684769"
    },
    {
      "constant": true,
      "inputs": [
        {
          "name": "",
          "type": "uint256"
        }
      ],
      "name": "registeredFlights",
      "outputs": [
        {
          "name": "",
          "type": "bytes32"
        }
      ],
      "payable": false,
      "stateMutability": "view",
      "type": "function",
      "signature": "0x540635b4"
    },
    {
      "constant": true,
      "inputs": [],
      "name": "registeredAirlines",
      "outputs": [
        {
          "name": "",
          "type": "uint256"
        }
      ],
      "payable": false,
      "stateMutability": "view",
      "type": "function",
      "signature": "0x61a528b4"
    },
    {
      "constant": true,
      "inputs": [
        {
          "name": "",
          "type": "address"
        }
      ],
      "name": "pendingWithdrawals",
      "outputs": [
        {
          "name": "",
          "type": "uint256"
        }
      ],
      "payable": false,
      "stateMutability": "view",
      "type": "function",
      "signature": "0xf3f43703"
    },
    {
      "inputs": [
        {
          "name": "airlineAddress",
          "type": "address"
        }
      ],
      "payable": false,
      "stateMutability": "nonpayable",
      "type": "constructor",
      "signature": "constructor"
    },
    {
      "anonymous": false,
      "inputs": [
        {
          "indexed": false,
          "name": "airline",
          "type": "address"
        }
      ],
      "name": "AirlineRegistered",
      "type": "event",
      "signature": "0x89a6354fb229eda6cbc28306798727b4d524818d2c375220bc3f360f24cffaca"
    },
    {
      "anonymous": false,
      "inputs": [
        {
          "indexed": false,
          "name": "airline",
          "type": "address"
        }
      ],
      "name": "AirlineFunded",
      "type": "event",
      "signature": "0x3c348ba34685212d5d04f432a9e569b642b180df0227a6b0c899050c4acb7af8"
    },
    {
      "anonymous": false,
      "inputs": [
        {
          "indexed": false,
          "name": "flightKey",
          "type": "bytes32"
        }
      ],
      "name": "FlightRegistered",
      "type": "event",
      "signature": "0xbc2e2465316fe44b06c0fb6f524b2edb5f66caa1ba5b1fe1e10ff178e8707e14"
    },
    {
      "anonymous": false,
      "inputs": [
        {
          "indexed": false,
          "name": "flightKey",
          "type": "bytes32"
        },
        {
          "indexed": false,
          "name": "passenger",
          "type": "address"
        }
      ],
      "name": "PassengerInsured",
      "type": "event",
      "signature": "0x7e90b13f2c96fdeb953f7b009d735760e08ff947ec82869215c1705f9b3f9a01"
    },
    {
      "anonymous": false,
      "inputs": [
        {
          "indexed": false,
          "name": "flightKey",
          "type": "bytes32"
        },
        {
          "indexed": false,
          "name": "statusCode",
          "type": "uint8"
        }
      ],
      "name": "FlightStatusUpdated",
      "type": "event",
      "signature": "0x6b7efd1d185714db0de1fb8acf2c5fba53efbdf80a89fe0385d209e3503adfc5"
    },
    {
      "anonymous": false,
      "inputs": [
        {
          "indexed": false,
          "name": "passenger",
          "type": "address"
        },
        {
          "indexed": false,
          "name": "amount",
          "type": "uint256"
        }
      ],
      "name": "PassengerCredited",
      "type": "event",
      "signature": "0xfe9067d701ba2a9ca5f956902c52a3056cb785ab32a7655c01189b5a3079822f"
    },
    {
      "anonymous": false,
      "inputs": [
        {
          "indexed": false,
          "name": "caller",
          "type": "address"
        },
        {
          "indexed": false,
          "name": "amount",
          "type": "uint256"
        }
      ],
      "name": "AccountWithdrawal",
      "type": "event",
      "signature": "0x0ce7685fe5ebac0a8d7a9e14339167d23465bb2686491c2d4c25d6cd9f61d5d2"
    },
    {
      "constant": true,
      "inputs": [],
      "name": "isOperational",
      "outputs": [
        {
          "name": "",
          "type": "bool"
        }
      ],
      "payable": false,
      "stateMutability": "view",
      "type": "function",
      "signature": "0xcd905dff"
    },
    {
      "constant": false,
      "inputs": [
        {
          "name": "mode",
          "type": "bool"
        }
      ],
      "name": "setOperatingStatus",
      "outputs": [],
      "payable": false,
      "stateMutability": "nonpayable",
      "type": "function",
      "signature": "0x110466ed"
    },
    {
      "constant": true,
      "inputs": [
        {
          "name": "index",
          "type": "uint256"
        }
      ],
      "name": "getFlightKeyIndex",
      "outputs": [
        {
          "name": "",
          "type": "bytes32"
        }
      ],
      "payable": false,
      "stateMutability": "view",
      "type": "function",
      "signature": "0x1276ecbf"
    },
    {
      "constant": true,
      "inputs": [],
      "name": "getRegisteredFlights",
      "outputs": [
        {
          "name": "",
          "type": "uint256"
        }
      ],
      "payable": false,
      "stateMutability": "view",
      "type": "function",
      "signature": "0x70715338"
    },
    {
      "constant": true,
      "inputs": [
        {
          "name": "flightKey",
          "type": "bytes32"
        }
      ],
      "name": "hasFlightLanded",
      "outputs": [
        {
          "name": "",
          "type": "bool"
        }
      ],
      "payable": false,
      "stateMutability": "view",
      "type": "function",
      "signature": "0x92e7b1eb"
    },
    {
      "constant": true,
      "inputs": [
        {
          "name": "flightKey",
          "type": "bytes32"
        }
      ],
      "name": "hasFlightRegistered",
      "outputs": [
        {
          "name": "",
          "type": "bool"
        }
      ],
      "payable": false,
      "stateMutability": "view",
      "type": "function",
      "signature": "0xe3c87367"
    },
    {
      "constant": true,
      "inputs": [
        {
          "name": "flightKey",
          "type": "bytes32"
        },
        {
          "name": "passenger",
          "type": "address"
        }
      ],
      "name": "isPassengerInsured",
      "outputs": [
        {
          "name": "",
          "type": "bool"
        }
      ],
      "payable": false,
      "stateMutability": "view",
      "type": "function",
      "signature": "0xa4196b36"
    },
    {
      "constant": true,
      "inputs": [
        {
          "name": "caller",
          "type": "address"
        }
      ],
      "name": "isAuthorized",
      "outputs": [
        {
          "name": "",
          "type": "bool"
        }
      ],
      "payable": false,
      "stateMutability": "view",
      "type": "function",
      "signature": "0xfe9fbb80"
    },
    {
      "constant": true,
      "inputs": [],
      "name": "getRegisteredAirlines",
      "outputs": [
        {
          "name": "",
          "type": "uint256"
        }
      ],
      "payable": false,
      "stateMutability": "view",
      "type": "function",
      "signature": "0xc23bcf09"
    },
    {
      "constant": true,
      "inputs": [
        {
          "name": "airline",
          "type": "address"
        }
      ],
      "name": "hasAirlineFunded",
      "outputs": [
        {
          "name": "",
          "type": "bool"
        }
      ],
      "payable": false,
      "stateMutability": "view",
      "type": "function",
      "signature": "0x31ac0d02"
    },
    {
      "constant": true,
      "inputs": [
        {
          "name": "airline",
          "type": "address"
        }
      ],
      "name": "hasAirlineRegistered",
      "outputs": [
        {
          "name": "",
          "type": "bool"
        }
      ],
      "payable": false,
      "stateMutability": "view",
      "type": "function",
      "signature": "0x3e79d649"
    },
    {
      "constant": false,
      "inputs": [
        {
          "name": "caller",
          "type": "address"
        }
      ],
      "name": "authorizeCaller",
      "outputs": [],
      "payable": false,
      "stateMutability": "nonpayable",
      "type": "function",
      "signature": "0x2c388d5d"
    },
    {
      "constant": false,
      "inputs": [
        {
          "name": "caller",
          "type": "address"
        }
      ],
      "name": "deauthorizeCaller",
      "outputs": [],
      "payable": false,
      "stateMutability": "nonpayable",
      "type": "function",
      "signature": "0x6873c21d"
    },
    {
      "constant": false,
      "inputs": [
        {
          "name": "airline",
          "type": "address"
        }
      ],
      "name": "fundAirline",
      "outputs": [],
      "payable": true,
      "stateMutability": "payable",
      "type": "function",
      "signature": "0x6fbb8798"
    },
    {
      "constant": false,
      "inputs": [
        {
          "name": "airline",
          "type": "address"
        },
        {
          "name": "caller",
          "type": "address"
        }
      ],
      "name": "registerAirline",
      "outputs": [],
      "payable": false,
      "stateMutability": "nonpayable",
      "type": "function",
      "signature": "0xc7ba5018"
    },
    {
      "constant": false,
      "inputs": [
        {
          "name": "flightKey",
          "type": "bytes32"
        },
        {
          "name": "airline",
          "type": "address"
        },
        {
          "name": "flight",
          "type": "string"
        },
        {
          "name": "timestamp",
          "type": "uint256"
        },
        {
          "name": "departure",
          "type": "string"
        },
        {
          "name": "destination",
          "type": "string"
        }
      ],
      "name": "registerFlight",
      "outputs": [],
      "payable": true,
      "stateMutability": "payable",
      "type": "function",
      "signature": "0xfb5cf1e9"
    },
    {
      "constant": false,
      "inputs": [
        {
          "name": "flightKey",
          "type": "bytes32"
        },
        {
          "name": "statusCode",
          "type": "uint8"
        }
      ],
      "name": "updateFlightStatus",
      "outputs": [],
      "payable": false,
      "stateMutability": "nonpayable",
      "type": "function",
      "signature": "0x3f2aecea"
    },
    {
      "constant": false,
      "inputs": [
        {
          "name": "flightKey",
          "type": "bytes32"
        },
        {
          "name": "passenger",
          "type": "address"
        },
        {
          "name": "amount",
          "type": "uint256"
        },
        {
          "name": "multiplier",
          "type": "uint256"
        }
      ],
      "name": "buy",
      "outputs": [],
      "payable": false,
      "stateMutability": "nonpayable",
      "type": "function",
      "signature": "0x4b826074"
    },
    {
      "constant": false,
      "inputs": [
        {
          "name": "caller",
          "type": "address"
        }
      ],
      "name": "pay",
      "outputs": [],
      "payable": false,
      "stateMutability": "nonpayable",
      "type": "function",
      "signature": "0x0c11dedd"
    }
  ],
  "bytecode": "0x60806040526001600660146101000a81548160ff02191690831515021790555034801561002b57600080fd5b50604051602080612d648339810180604052602081101561004b57600080fd5b810190808051906020019092919050505033600660006101000a81548173ffffffffffffffffffffffffffffffffffffffff021916908373ffffffffffffffffffffffffffffffffffffffff1602179055506040518060400160405280600115158152602001600015158152506000808373ffffffffffffffffffffffffffffffffffffffff1673ffffffffffffffffffffffffffffffffffffffff16815260200190815260200160002060008201518160000160006101000a81548160ff02191690831515021790555060208201518160000160016101000a81548160ff0219169083151502179055509050506001808190555050612c14806101506000396000f3fe608060405260043610610168576000357c0100000000000000000000000000000000000000000000000000000000900480636873c21d116100d3578063c7ba50181161008c578063c7ba5018146108a1578063cd905dff14610912578063e3c8736714610941578063f3f4370314610994578063fb5cf1e9146109f9578063fe9fbb8014610c1657610168565b80636873c21d146106f05780636fbb879814610741578063707153381461078557806392e7b1eb146107b0578063a4196b3614610803578063c23bcf091461087657610168565b80633e79d649116101255780633e79d649146104e25780633f2aecea1461054b57806341684769146105935780634b82607414610607578063540635b41461067657806361a528b4146106c557610168565b80630c11dedd1461016d578063110466ed146101be5780631276ecbf146101fb57806320c5375e1461024a5780632c388d5d1461042857806331ac0d0214610479575b600080fd5b34801561017957600080fd5b506101bc6004803603602081101561019057600080fd5b81019080803573ffffffffffffffffffffffffffffffffffffffff169060200190929190505050610c7f565b005b3480156101ca57600080fd5b506101f9600480360360208110156101e157600080fd5b81019080803515159060200190929190505050610f64565b005b34801561020757600080fd5b506102346004803603602081101561021e57600080fd5b8101908080359060200190929190505050611044565b6040518082815260200191505060405180910390f35b34801561025657600080fd5b506102836004803603602081101561026d57600080fd5b8101908080359060200190929190505050611065565b60405180881515151581526020018773ffffffffffffffffffffffffffffffffffffffff1673ffffffffffffffffffffffffffffffffffffffff1681526020018060200180602001806020018681526020018560ff1660ff168152602001848103845289818151815260200191508051906020019080838360005b838110156103195780820151818401526020810190506102fe565b50505050905090810190601f1680156103465780820380516001836020036101000a031916815260200191505b50848103835288818151815260200191508051906020019080838360005b8381101561037f578082015181840152602081019050610364565b50505050905090810190601f1680156103ac5780820380516001836020036101000a031916815260200191505b50848103825287818151815260200191508051906020019080838360005b838110156103e55780820151818401526020810190506103ca565b50505050905090810190601f1680156104125780820380516001836020036101000a031916815260200191505b509a505050505050505050505060405180910390f35b34801561043457600080fd5b506104776004803603602081101561044b57600080fd5b81019080803573ffffffffffffffffffffffffffffffffffffffff1690602001909291905050506112a9565b005b34801561048557600080fd5b506104c86004803603602081101561049c57600080fd5b81019080803573ffffffffffffffffffffffffffffffffffffffff1690602001909291905050506113c7565b604051808215151515815260200191505060405180910390f35b3480156104ee57600080fd5b506105316004803603602081101561050557600080fd5b81019080803573ffffffffffffffffffffffffffffffffffffffff16906020019092919050505061141f565b604051808215151515815260200191505060405180910390f35b34801561055757600080fd5b506105916004803603604081101561056e57600080fd5b8101908080359060200190929190803560ff169060200190929190505050611477565b005b34801561059f57600080fd5b506105e2600480360360208110156105b657600080fd5b81019080803573ffffffffffffffffffffffffffffffffffffffff169060200190929190505050611643565b6040518083151515158152602001821515151581526020019250505060405180910390f35b34801561061357600080fd5b506106746004803603608081101561062a57600080fd5b8101908080359060200190929190803573ffffffffffffffffffffffffffffffffffffffff1690602001909291908035906020019092919080359060200190929190505050611681565b005b34801561068257600080fd5b506106af6004803603602081101561069957600080fd5b8101908080359060200190929190505050611a33565b6040518082815260200191505060405180910390f35b3480156106d157600080fd5b506106da611a54565b6040518082815260200191505060405180910390f35b3480156106fc57600080fd5b5061073f6004803603602081101561071357600080fd5b81019080803573ffffffffffffffffffffffffffffffffffffffff169060200190929190505050611a5a565b005b6107836004803603602081101561075757600080fd5b81019080803573ffffffffffffffffffffffffffffffffffffffff169060200190929190505050611b6f565b005b34801561079157600080fd5b5061079a611d3d565b6040518082815260200191505060405180910390f35b3480156107bc57600080fd5b506107e9600480360360208110156107d357600080fd5b8101908080359060200190929190505050611d4a565b604051808215151515815260200191505060405180910390f35b34801561080f57600080fd5b5061085c6004803603604081101561082657600080fd5b8101908080359060200190929190803573ffffffffffffffffffffffffffffffffffffffff169060200190929190505050611d7c565b604051808215151515815260200191505060405180910390f35b34801561088257600080fd5b5061088b611eef565b6040518082815260200191505060405180910390f35b3480156108ad57600080fd5b50610910600480360360408110156108c457600080fd5b81019080803573ffffffffffffffffffffffffffffffffffffffff169060200190929190803573ffffffffffffffffffffffffffffffffffffffff169060200190929190505050611ef9565b005b34801561091e57600080fd5b506109276121d8565b604051808215151515815260200191505060405180910390f35b34801561094d57600080fd5b5061097a6004803603602081101561096457600080fd5b81019080803590602001909291905050506121ef565b604051808215151515815260200191505060405180910390f35b3480156109a057600080fd5b506109e3600480360360208110156109b757600080fd5b81019080803573ffffffffffffffffffffffffffffffffffffffff16906020019092919050505061221c565b6040518082815260200191505060405180910390f35b610c14600480360360c0811015610a0f57600080fd5b8101908080359060200190929190803573ffffffffffffffffffffffffffffffffffffffff16906020019092919080359060200190640100000000811115610a5657600080fd5b820183602082011115610a6857600080fd5b80359060200191846001830284011164010000000083111715610a8a57600080fd5b91908080601f016020809104026020016040519081016040528093929190818152602001838380828437600081840152601f19601f8201169050808301925050505050505091929192908035906020019092919080359060200190640100000000811115610af757600080fd5b820183602082011115610b0957600080fd5b80359060200191846001830284011164010000000083111715610b2b57600080fd5b91908080601f016020809104026020016040519081016040528093929190818152602001838380828437600081840152601f19601f82011690508083019250505050505050919291929080359060200190640100000000811115610b8e57600080fd5b820183602082011115610ba057600080fd5b80359060200191846001830284011164010000000083111715610bc257600080fd5b91908080601f016020809104026020016040519081016040528093929190818152602001838380828437600081840152601f19601f820116905080830192505050505050509192919290505050612234565b005b348015610c2257600080fd5b50610c6560048036036020811015610c3957600080fd5b81019080803573ffffffffffffffffffffffffffffffffffffffff16906020019092919050505061265e565b604051808215151515815260200191505060405180910390f35b60011515600760003373ffffffffffffffffffffffffffffffffffffffff1673ffffffffffffffffffffffffffffffffffffffff16815260200190815260200160002060009054906101000a900460ff16151514610d28576040517f08c379a0000000000000000000000000000000000000000000000000000000008152600401808060200182810382526021815260200180612b826021913960400191505060405180910390fd5b600660149054906101000a900460ff16610d8d576040517f08c379a0000000000000000000000000000000000000000000000000000000008152600401808060200182810382526025815260200180612bc46025913960400191505060405180910390fd5b6000600560008373ffffffffffffffffffffffffffffffffffffffff1673ffffffffffffffffffffffffffffffffffffffff1681526020019081526020016000205411610e25576040517f08c379a0000000000000000000000000000000000000000000000000000000008152600401808060200182810382526021815260200180612ba36021913960400191505060405180910390fd5b6000600560008373ffffffffffffffffffffffffffffffffffffffff1673ffffffffffffffffffffffffffffffffffffffff1681526020019081526020016000205490506000600560008473ffffffffffffffffffffffffffffffffffffffff1673ffffffffffffffffffffffffffffffffffffffff168152602001908152602001600020819055508173ffffffffffffffffffffffffffffffffffffffff166108fc829081150290604051600060405180830381858888f19350505050158015610ef4573d6000803e3d6000fd5b507f0ce7685fe5ebac0a8d7a9e14339167d23465bb2686491c2d4c25d6cd9f61d5d28282604051808373ffffffffffffffffffffffffffffffffffffffff1673ffffffffffffffffffffffffffffffffffffffff1681526020018281526020019250505060405180910390a15050565b600660009054906101000a900473ffffffffffffffffffffffffffffffffffffffff1673ffffffffffffffffffffffffffffffffffffffff163373ffffffffffffffffffffffffffffffffffffffff1614611027576040517f08c379a000000000000000000000000000000000000000000000000000000000815260040180806020018281038252601c8152602001807f43616c6c6572206973206e6f7420636f6e7472616374206f776e65720000000081525060200191505060405180910390fd5b80600660146101000a81548160ff02191690831515021790555050565b60006003828154811061105357fe5b90600052602060002001549050919050565b60026020528060005260406000206000915090508060000160009054906101000a900460ff16908060000160019054906101000a900473ffffffffffffffffffffffffffffffffffffffff1690806001018054600181600116156101000203166002900480601f01602080910402602001604051908101604052809291908181526020018280546001816001161561010002031660029004801561114a5780601f1061111f5761010080835404028352916020019161114a565b820191906000526020600020905b81548152906001019060200180831161112d57829003601f168201915b505050505090806002018054600181600116156101000203166002900480601f0160208091040260200160405190810160405280929190818152602001828054600181600116156101000203166002900480156111e85780601f106111bd576101008083540402835291602001916111e8565b820191906000526020600020905b8154815290600101906020018083116111cb57829003601f168201915b505050505090806003018054600181600116156101000203166002900480601f0160208091040260200160405190810160405280929190818152602001828054600181600116156101000203166002900480156112865780601f1061125b57610100808354040283529160200191611286565b820191906000526020600020905b81548152906001019060200180831161126957829003601f168201915b5050505050908060040154908060050160009054906101000a900460ff16905087565b600660009054906101000a900473ffffffffffffffffffffffffffffffffffffffff1673ffffffffffffffffffffffffffffffffffffffff163373ffffffffffffffffffffffffffffffffffffffff161461136c576040517f08c379a000000000000000000000000000000000000000000000000000000000815260040180806020018281038252601c8152602001807f43616c6c6572206973206e6f7420636f6e7472616374206f776e65720000000081525060200191505060405180910390fd5b6001600760008373ffffffffffffffffffffffffffffffffffffffff1673ffffffffffffffffffffffffffffffffffffffff16815260200190815260200160002060006101000a81548160ff02191690831515021790555050565b60008060008373ffffffffffffffffffffffffffffffffffffffff1673ffffffffffffffffffffffffffffffffffffffff16815260200190815260200160002060000160019054906101000a900460ff169050919050565b60008060008373ffffffffffffffffffffffffffffffffffffffff1673ffffffffffffffffffffffffffffffffffffffff16815260200190815260200160002060000160009054906101000a900460ff169050919050565b600660149054906101000a900460ff166114dc576040517f08c379a0000000000000000000000000000000000000000000000000000000008152600401808060200182810382526025815260200180612bc46025913960400191505060405180910390fd5b60011515600760003373ffffffffffffffffffffffffffffffffffffffff1673ffffffffffffffffffffffffffffffffffffffff16815260200190815260200160002060009054906101000a900460ff16151514611585576040517f08c379a0000000000000000000000000000000000000000000000000000000008152600401808060200182810382526021815260200180612b826021913960400191505060405180910390fd5b60006002600084815260200190815260200160002060050160009054906101000a900460ff1660ff1614156115fa57806002600084815260200190815260200160002060050160006101000a81548160ff021916908360ff16021790555060148160ff1614156115f9576115f8826126b4565b5b5b7f6b7efd1d185714db0de1fb8acf2c5fba53efbdf80a89fe0385d209e3503adfc58282604051808381526020018260ff1660ff1681526020019250505060405180910390a15050565b60006020528060005260406000206000915090508060000160009054906101000a900460ff16908060000160019054906101000a900460ff16905082565b600660149054906101000a900460ff166116e6576040517f08c379a0000000000000000000000000000000000000000000000000000000008152600401808060200182810382526025815260200180612bc46025913960400191505060405180910390fd5b60011515600760003373ffffffffffffffffffffffffffffffffffffffff1673ffffffffffffffffffffffffffffffffffffffff16815260200190815260200160002060009054906101000a900460ff1615151461178f576040517f08c379a0000000000000000000000000000000000000000000000000000000008152600401808060200182810382526021815260200180612b826021913960400191505060405180910390fd5b83600115156002600083815260200190815260200160002060000160009054906101000a900460ff1615151461182d576040517f08c379a00000000000000000000000000000000000000000000000000000000081526004018080602001828103825260198152602001807f466c69676874206973206e6f742052656769737465726564210000000000000081525060200191505060405180910390fd5b8460006002600083815260200190815260200160002060050160009054906101000a900460ff1660ff16146118ca576040517f08c379a000000000000000000000000000000000000000000000000000000000815260040180806020018281038252601a8152602001807f466c696768742068617320616c7265616479206c616e6465642100000000000081525060200191505060405180910390fd5b6004600087815260200190815260200160002060405180608001604052808773ffffffffffffffffffffffffffffffffffffffff168152602001868152602001858152602001600015158152509080600181540180825580915050906001820390600052602060002090600402016000909192909190915060008201518160000160006101000a81548173ffffffffffffffffffffffffffffffffffffffff021916908373ffffffffffffffffffffffffffffffffffffffff160217905550602082015181600101556040820151816002015560608201518160030160006101000a81548160ff0219169083151502179055505050507f7e90b13f2c96fdeb953f7b009d735760e08ff947ec82869215c1705f9b3f9a018686604051808381526020018273ffffffffffffffffffffffffffffffffffffffff1673ffffffffffffffffffffffffffffffffffffffff1681526020019250505060405180910390a1505050505050565b60038181548110611a4057fe5b906000526020600020016000915090505481565b60015481565b600660009054906101000a900473ffffffffffffffffffffffffffffffffffffffff1673ffffffffffffffffffffffffffffffffffffffff163373ffffffffffffffffffffffffffffffffffffffff1614611b1d576040517f08c379a000000000000000000000000000000000000000000000000000000000815260040180806020018281038252601c8152602001807f43616c6c6572206973206e6f7420636f6e7472616374206f776e65720000000081525060200191505060405180910390fd5b600760008273ffffffffffffffffffffffffffffffffffffffff1673ffffffffffffffffffffffffffffffffffffffff16815260200190815260200160002060006101000a81549060ff021916905550565b600660149054906101000a900460ff16611bd4576040517f08c379a0000000000000000000000000000000000000000000000000000000008152600401808060200182810382526025815260200180612bc46025913960400191505060405180910390fd5b60011515600760003373ffffffffffffffffffffffffffffffffffffffff1673ffffffffffffffffffffffffffffffffffffffff16815260200190815260200160002060009054906101000a900460ff16151514611c7d576040517f08c379a0000000000000000000000000000000000000000000000000000000008152600401808060200182810382526021815260200180612b826021913960400191505060405180910390fd5b60016000808373ffffffffffffffffffffffffffffffffffffffff1673ffffffffffffffffffffffffffffffffffffffff16815260200190815260200160002060000160016101000a81548160ff0219169083151502179055507f3c348ba34685212d5d04f432a9e569b642b180df0227a6b0c899050c4acb7af881604051808273ffffffffffffffffffffffffffffffffffffffff1673ffffffffffffffffffffffffffffffffffffffff16815260200191505060405180910390a150565b6000600380549050905090565b6000806002600084815260200190815260200160002060050160009054906101000a900460ff1660ff16119050919050565b6000606060046000858152602001908152602001600020805480602002602001604051908101604052809291908181526020016000905b82821015611e6a57838290600052602060002090600402016040518060800160405290816000820160009054906101000a900473ffffffffffffffffffffffffffffffffffffffff1673ffffffffffffffffffffffffffffffffffffffff1673ffffffffffffffffffffffffffffffffffffffff16815260200160018201548152602001600282015481526020016003820160009054906101000a900460ff16151515158152505081526020019060010190611db3565b50505050905060008090505b8151811015611ee2578373ffffffffffffffffffffffffffffffffffffffff16828281518110611ea257fe5b60200260200101516000015173ffffffffffffffffffffffffffffffffffffffff161415611ed557600192505050611ee9565b8080600101915050611e76565b5060009150505b92915050565b6000600154905090565b600660149054906101000a900460ff16611f5e576040517f08c379a0000000000000000000000000000000000000000000000000000000008152600401808060200182810382526025815260200180612bc46025913960400191505060405180910390fd5b60011515600760003373ffffffffffffffffffffffffffffffffffffffff1673ffffffffffffffffffffffffffffffffffffffff16815260200190815260200160002060009054906101000a900460ff16151514612007576040517f08c379a0000000000000000000000000000000000000000000000000000000008152600401808060200182810382526021815260200180612b826021913960400191505060405180910390fd5b806000808273ffffffffffffffffffffffffffffffffffffffff1673ffffffffffffffffffffffffffffffffffffffff16815260200190815260200160002060000160009054906101000a900460ff166120c9576040517f08c379a00000000000000000000000000000000000000000000000000000000081526004018080602001828103825260138152602001807f4169726c696e65206e6f742066756e646564210000000000000000000000000081525060200191505060405180910390fd5b6040518060400160405280600115158152602001600015158152506000808573ffffffffffffffffffffffffffffffffffffffff1673ffffffffffffffffffffffffffffffffffffffff16815260200190815260200160002060008201518160000160006101000a81548160ff02191690831515021790555060208201518160000160016101000a81548160ff02191690831515021790555090505060018054016001819055507f89a6354fb229eda6cbc28306798727b4d524818d2c375220bc3f360f24cffaca83604051808273ffffffffffffffffffffffffffffffffffffffff1673ffffffffffffffffffffffffffffffffffffffff16815260200191505060405180910390a1505050565b6000600660149054906101000a900460ff16905090565b60006002600083815260200190815260200160002060000160009054906101000a900460ff169050919050565b60056020528060005260406000206000915090505481565b600660149054906101000a900460ff16612299576040517f08c379a0000000000000000000000000000000000000000000000000000000008152600401808060200182810382526025815260200180612bc46025913960400191505060405180910390fd5b60011515600760003373ffffffffffffffffffffffffffffffffffffffff1673ffffffffffffffffffffffffffffffffffffffff16815260200190815260200160002060009054906101000a900460ff16151514612342576040517f08c379a0000000000000000000000000000000000000000000000000000000008152600401808060200182810382526021815260200180612b826021913960400191505060405180910390fd5b846000808273ffffffffffffffffffffffffffffffffffffffff1673ffffffffffffffffffffffffffffffffffffffff16815260200190815260200160002060000160009054906101000a900460ff16612404576040517f08c379a00000000000000000000000000000000000000000000000000000000081526004018080602001828103825260138152602001807f4169726c696e65206e6f742066756e646564210000000000000000000000000081525060200191505060405180910390fd5b86600015156002600083815260200190815260200160002060000160009054906101000a900460ff161515146124a2576040517f08c379a000000000000000000000000000000000000000000000000000000000815260040180806020018281038252601d8152602001807f466c6967687420697320616c726561647920526567697374657265642100000081525060200191505060405180910390fd5b6040518060e001604052806001151581526020018873ffffffffffffffffffffffffffffffffffffffff168152602001878152602001858152602001848152602001868152602001600060ff16815250600260008a815260200190815260200160002060008201518160000160006101000a81548160ff02191690831515021790555060208201518160000160016101000a81548173ffffffffffffffffffffffffffffffffffffffff021916908373ffffffffffffffffffffffffffffffffffffffff1602179055506040820151816001019080519060200190612588929190612adc565b5060608201518160020190805190602001906125a5929190612adc565b5060808201518160030190805190602001906125c2929190612adc565b5060a0820151816004015560c08201518160050160006101000a81548160ff021916908360ff16021790555090505060038890806001815401808255809150509060018203906000526020600020016000909192909190915055507fbc2e2465316fe44b06c0fb6f524b2edb5f66caa1ba5b1fe1e10ff178e8707e14886040518082815260200191505060405180910390a15050505050505050565b6000600760008373ffffffffffffffffffffffffffffffffffffffff1673ffffffffffffffffffffffffffffffffffffffff16815260200190815260200160002060009054906101000a900460ff169050919050565b600660149054906101000a900460ff16612719576040517f08c379a0000000000000000000000000000000000000000000000000000000008152600401808060200182810382526025815260200180612bc46025913960400191505060405180910390fd5b60011515600760003373ffffffffffffffffffffffffffffffffffffffff1673ffffffffffffffffffffffffffffffffffffffff16815260200190815260200160002060009054906101000a900460ff161515146127c2576040517f08c379a0000000000000000000000000000000000000000000000000000000008152600401808060200182810382526021815260200180612b826021913960400191505060405180910390fd5b60008090505b6004600083815260200190815260200160002080549050811015612a48576000151560046000848152602001908152602001600020828154811061280857fe5b906000526020600020906004020160030160009054906101000a900460ff1615151415612a3b57600160046000848152602001908152602001600020828154811061284f57fe5b906000526020600020906004020160030160006101000a81548160ff02191690831515021790555060006128e160046000858152602001908152602001600020838154811061289a57fe5b9060005260206000209060040201600101546004600086815260200190815260200160002084815481106128ca57fe5b906000526020600020906004020160020154612a4c565b9050806005600060046000878152602001908152602001600020858154811061290657fe5b906000526020600020906004020160000160009054906101000a900473ffffffffffffffffffffffffffffffffffffffff1673ffffffffffffffffffffffffffffffffffffffff1673ffffffffffffffffffffffffffffffffffffffff168152602001908152602001600020600082825401925050819055507ffe9067d701ba2a9ca5f956902c52a3056cb785ab32a7655c01189b5a3079822f6004600085815260200190815260200160002083815481106129be57fe5b906000526020600020906004020160000160009054906101000a900473ffffffffffffffffffffffffffffffffffffffff1682604051808373ffffffffffffffffffffffffffffffffffffffff1673ffffffffffffffffffffffffffffffffffffffff1681526020018281526020019250505060405180910390a1505b80806001019150506127c8565b5050565b6000612a746064612a668486612a7c90919063ffffffff16565b612ab690919063ffffffff16565b905092915050565b600080831415612a8f5760009050612ab0565b6000828402905082848281612aa057fe5b0414612aab57600080fd5b809150505b92915050565b6000808211612ac457600080fd5b6000828481612acf57fe5b0490508091505092915050565b828054600181600116156101000203166002900490600052602060002090601f016020900481019282601f10612b1d57805160ff1916838001178555612b4b565b82800160010185558215612b4b579182015b82811115612b4a578251825591602001919060010190612b2f565b5b509050612b589190612b5c565b5090565b612b7e91905b80821115612b7a576000816000905550600101612b62565b5090565b9056fe43616c6c6572206973206e6f7420617574686f72697a656420636f6e74726163744e6f2066756e647320617661696c61626c6520666f72207769746864726177616c436f6e74726163742069732063757272656e746c79206e6f74206f7065726174696f6e616ca165627a7a7230582047c12a56f19df2f844be67ed5bc2da1eb4e0db084fbc8807643cef12a0a0edff0029",
  "source": "pragma solidity ^0.5.6;\n\nimport \"../node_modules/openzeppelin-solidity/contracts/math/SafeMath.sol\";\n\ncontract FlightSuretyData {\n    \n    using SafeMath for uint256;\n\n    struct Airline {\n        bool isRegistered;\n        bool isFunded;\n    }\n\n    struct Flight {\n        bool isRegistered;\n        address airline;\n        string flight;\n        string departure;\n        string destination;\n        uint timestamp;\n        uint8 statusCode;\n    }\n\n    struct InsuredData {\n        address passenger;\n        //used to decouple insurance price and multiplier from data contract\n        uint256 amount;\n        uint256 multiplier;\n        bool credited;\n    }\n\n    mapping(address => Airline) public airlines;\n    uint256 public registeredAirlines;\n    mapping(bytes32 => Flight) public flights;\n    bytes32[] public registeredFlights;\n    mapping(bytes32 => InsuredData[]) flightInsuredPassengers;\n    mapping(address => uint) public pendingWithdrawals;\n\n    /********************************************************************************************/\n    /*                                       DATA VARIABLES                                     */\n    /********************************************************************************************/\n\n    address private contractOwner;                                      // Account used to deploy contract\n    bool private operational = true;\n    mapping(address => bool) private authorizedCallers;                                    // Blocks all state changes throughout the contract if false                                   \n\n    /********************************************************************************************/\n    /*                                       EVENT DEFINITIONS                                  */\n    /********************************************************************************************/\n\n    event AirlineRegistered(address airline);\n    event AirlineFunded(address airline);\n    event FlightRegistered(bytes32 flightKey);\n    event PassengerInsured(bytes32 flightKey, address passenger);\n    event FlightStatusUpdated(bytes32 flightKey, uint8 statusCode);\n    event PassengerCredited(address passenger, uint256 amount);\n    event AccountWithdrawal(address caller, uint256 amount);\n\n\n    /**\n    * @dev Constructor\n    *      The deploying account becomes contractOwner\n    */\n    constructor(address airlineAddress) public {\n        contractOwner = msg.sender;\n        airlines[airlineAddress] = Airline(true, false);\n        registeredAirlines = 1;\n    }\n\n    /********************************************************************************************/\n    /*                                       FUNCTION MODIFIERS                                 */\n    /********************************************************************************************/\n\n    // Modifiers help avoid duplication of code. They are typically used to validate something\n    // before a function is allowed to be executed.\n\n    /**\n    * @dev Modifier that requires the \"operational\" boolean variable to be \"true\"\n    *      This is used on all state changing functions to pause the contract in \n    *      the event there is an issue that needs to be fixed\n    */\n    modifier requireIsOperational() {\n        require(operational, \"Contract is currently not operational\");\n        _;  // All modifiers require an \"_\" which indicates where the function body will be added\n    }\n\n    /**\n    * @dev Modifier that requires the \"ContractOwner\" account to be the function caller\n    */\n    modifier requireContractOwner() {\n        require(msg.sender == contractOwner, \"Caller is not contract owner\");\n        _;\n    }\n\n    modifier isAuthorizedCaller() {\n        require((authorizedCallers[msg.sender] == true), \"Caller is not authorized contract\");\n        _;\n    }\n\n    modifier isAirlineRegistered(address airline) {\n        require(airlines[airline].isRegistered, \"Airline is not registered!\");\n        _;\n    }\n\n    modifier checkValue(uint256 price) {\n        _;\n        uint amountToReturn = msg.value - price;\n        msg.sender.transfer(amountToReturn);\n    }\n\n    modifier isFlightRegistered(bytes32 flightKey) {\n        require(flights[flightKey].isRegistered == true, \"Flight is not Registered!\");\n        _;\n    }\n\n    modifier isFlightNotRegistered(bytes32 flightKey) {\n        require(flights[flightKey].isRegistered == false, \"Flight is already Registered!\");\n        _;\n    }\n\n    modifier isFlightNotLanded(bytes32 flightKey) {\n        require(flights[flightKey].statusCode == 0, \"Flight has already landed!\");\n        _;\n    }\n\n    modifier isAirlineFunded(address airline) {\n        require(airlines[airline].isRegistered, \"Airline not funded!\");\n        _;\n    }\n\n\n\n    /********************************************************************************************/\n    /*                                       UTILITY FUNCTIONS                                  */\n    /********************************************************************************************/\n\n    /**\n    * @dev Get operating status of contract\n    *\n    * @return A bool that is the current operating status\n    */      \n    function isOperational() public view returns(bool) {\n        return operational;\n    }\n\n     /**\n    * @dev Sets contract operations on/off\n    *\n    * When operational mode is disabled, all write transactions except for this one will fail\n    */    \n    function setOperatingStatus(bool mode) external requireContractOwner {\n        operational = mode;\n    }\n\n    function getFlightKeyIndex(uint index) public view returns (bytes32) {\n        return registeredFlights[index];\n    }\n\n    function getRegisteredFlights() public view returns (uint) {\n        return registeredFlights.length;\n    }\n\n    function hasFlightLanded(bytes32 flightKey) public view returns (bool) {\n        return flights[flightKey].statusCode > 0;\n    }\n\n    function hasFlightRegistered(bytes32 flightKey) public view returns (bool) {\n        return flights[flightKey].isRegistered;\n    }\n\n    function isPassengerInsured(bytes32 flightKey, address passenger) external view returns (bool) {\n        InsuredData[] memory insuredPassengers = flightInsuredPassengers[flightKey];\n        for (uint i = 0; i < insuredPassengers.length; i++) {\n            if (insuredPassengers[i].passenger == passenger) {\n                return true;\n            }\n        }\n        return false;\n    } \n\n    function isAuthorized(address caller) public view returns (bool) {\n        return authorizedCallers[caller];\n    }\n\n    function getRegisteredAirlines() public view returns (uint256) {\n        return registeredAirlines;\n    }\n\n    function hasAirlineFunded(address airline) public view returns (bool) {\n        return airlines[airline].isFunded;\n    }\n\n    function hasAirlineRegistered(address airline) public view returns (bool) {\n        return airlines[airline].isRegistered;\n    }\n\n    function authorizeCaller(address caller) external requireContractOwner {\n        authorizedCallers[caller] = true;\n    }\n\n    function deauthorizeCaller(address caller) external requireContractOwner {\n        delete authorizedCallers[caller];\n    }\n\n    /********************************************************************************************/\n    /*                                     SMART CONTRACT FUNCTIONS                             */\n    /********************************************************************************************/\n\n   /**\n    * @dev Add an airline to the registration queue\n    *      Can only be called from FlightSuretyApp contract\n    *\n    */\n\n    function fundAirline(address airline) payable external requireIsOperational isAuthorizedCaller {\n        airlines[airline].isFunded = true;\n        emit AirlineFunded(airline);\n    }  \n\n    function registerAirline(address airline, address caller) external requireIsOperational isAuthorizedCaller isAirlineFunded(caller) {\n            airlines[airline] = Airline(true, false);\n            registeredAirlines = registeredAirlines + 1;\n            emit AirlineRegistered(airline);\n    }\n\n    function registerFlight(bytes32 flightKey, address airline, string memory flight, uint256 timestamp, string memory departure, string memory destination) public payable requireIsOperational isAuthorizedCaller isAirlineFunded(airline) isFlightNotRegistered(flightKey) {\n        flights[flightKey] = Flight(\n            true,\n            airline,\n            flight,\n            departure,\n            destination,\n            timestamp,\n            0\n        );\n\n        registeredFlights.push(flightKey);\n        emit FlightRegistered(flightKey);\n    }\n\n    function updateFlightStatus(bytes32 flightKey, uint8 statusCode) external requireIsOperational isAuthorizedCaller {\n        if (flights[flightKey].statusCode == 0) {\n            flights[flightKey].statusCode = statusCode;\n            if (statusCode == 20) {\n                creditInsurees(flightKey);\n            }\n        }\n        emit FlightStatusUpdated(flightKey, statusCode);\n    }\n\n   /**\n    * @dev Buy insurance for a flight\n    *\n    */   \n    function buy(bytes32 flightKey, address passenger, uint256 amount, uint256 multiplier) external requireIsOperational isAuthorizedCaller isFlightRegistered(flightKey) isFlightNotLanded(flightKey) {\n        flightInsuredPassengers[flightKey].push(InsuredData(\n            passenger,\n            amount,\n            multiplier,\n            false\n        ));\n\n        emit PassengerInsured(flightKey, passenger);\n    }\n\n    /**\n     *  @dev Credits payouts to insurees\n    */\n    function creditInsurees(bytes32 flightKey) internal requireIsOperational isAuthorizedCaller {\n        for (uint i = 0; i < flightInsuredPassengers[flightKey].length; i++) {\n            if (flightInsuredPassengers[flightKey][i].credited == false) {\n                flightInsuredPassengers[flightKey][i].credited = true;\n                uint256 amount = calculatePremium(flightInsuredPassengers[flightKey][i].amount,\n                                                    flightInsuredPassengers[flightKey][i].multiplier);\n               pendingWithdrawals[flightInsuredPassengers[flightKey][i].passenger] += amount;\n               emit PassengerCredited(flightInsuredPassengers[flightKey][i].passenger, amount);                                     \n            }\n        }\n    }\n\n    function calculatePremium(uint256 amount, uint256 multiplier) private pure returns(uint256) {\n        return amount.mul(multiplier).div(100);\n    }\n    \n\n    /**\n     *  @dev Transfers eligible payout funds to insuree\n     *\n    */\n    function pay(address caller) external isAuthorizedCaller requireIsOperational {\n        require(pendingWithdrawals[caller] > 0, \"No funds available for withdrawal\");\n        uint256 amount = pendingWithdrawals[caller];\n        pendingWithdrawals[caller] = 0;\n        address(uint160(address(caller))).transfer(amount);\n        emit AccountWithdrawal(caller, amount);\n    }\n\n    function getFlightKey(address airline, string memory flight, uint256 timestamp) pure internal returns(bytes32) {\n        return keccak256(abi.encodePacked(airline, flight, timestamp));\n    }\n\n}\n\n",
  "sourcePath": "C:/Blockchain/FlightSurety/contracts/FlightSuretyData.sol",
  "compiler": {
    "name": "solc",
    "version": "0.5.7+commit.6da8b019.Emscripten.clang"
  },
  "schemaVersion": "3.0.6",
  "updatedAt": "2019-05-04T09:22:47.063Z",
  "devdoc": {
    "methods": {
      "buy(bytes32,address,uint256,uint256)": {
        "details": "Buy insurance for a flight    "
      },
      "constructor": {
        "details": "Constructor     The deploying account becomes contractOwner"
      },
      "fundAirline(address)": {
        "details": "Add an airline to the registration queue     Can only be called from FlightSuretyApp contract    "
      },
      "isOperational()": {
        "details": "Get operating status of contract",
        "return": "A bool that is the current operating status"
      },
      "pay(address)": {
        "details": "Transfers eligible payout funds to insuree    "
      },
      "setOperatingStatus(bool)": {
        "details": "Sets contract operations on/off    * When operational mode is disabled, all write transactions except for this one will fail"
      }
    }
  },
  "userdoc": {
    "methods": {}
  }
}